:020000040800F2
:10000000585900201D030008A1220008E95D0008DE
:100010009D220008ED1E00080131000800000000CC
:10002000000000000000000000000000D12B0008CC
:10003000FD1F00080000000033030008952C000895
:1000400037030008370300083703000837030008A8
:100050003703000837030008370300083703000898
:100060003703000837030008370300083703000888
:100070003703000837030008370300083703000878
:100080003703000837030008370300083703000868
:100090003703000837030008370300083703000858
:1000A000370300083703000837030008812D0008D4
:1000B0003703000837030008370300083703000838
:1000C0003703000837030008370300083703000828
:1000D000370300083703000837030008852D0008A0
:1000E0003703000837030008370300083703000808
:1000F00037030008370300083703000837030008F8
:1001000037030008370300083703000837030008E7
:1001100037030008370300083703000837030008D7
:1001200037030008370300083703000837030008C7
:1001300037030008370300083703000837030008B7
:1001400037030008370300083703000837030008A7
:100150003703000837030008370300083703000897
:100160003703000837030008370300083703000887
:100170003703000837030008370300083703000877
:100180003703000837030008370300083703000867
:10019000370300083703000800F002F800F0AFF85A
:1001A0000AA090E8000C82448344AAF10107DA45D2
:1001B00001D100F0A4F8AFF2090EBAE80F0013F075
:1001C000010F18BFFB1A43F001031847A863000092
:1001D000C86300000A4410F8014B14F00F0508BF73
:1001E00010F8015B240908BF10F8014B6D1E05D003
:1001F00010F8013B6D1E01F8013BF9D1641E03D0DC
:10020000641E01F8015BFBD19142E4D3704700000A
:100210000023002400250026103A28BF78C1FBD80F
:10022000520728BF30C148BF0B6070476E2900F0ED
:100230004382702900F07983662905F036866529A6
:1002400005F03386672905F03086612905F02F8691
:1002500003681B0A28BF41F08001692900F0F08182
:10026000642900F0ED81752900F0EA816F2900F022
:100270000783782900F04583E92900F0A182E42969
:1002800000F09E82F52900F09B82EF2900F00483A4
:10029000F82900F044830368DB0928BF41F080019E
:1002A000632901F0C782732901F0CC82E32901F0B0
:1002B000D782F32901F0DC82002070471FB505F0DA
:1002C000E7FD9DE8030001F075FC00F053F9040020
:1002D0000020002105F0B0FD401C606000200021DE
:1002E00005F0C0FDE06000F0E3FC00F02FF91FBD59
:1002F00010B5002001F0CAFB00F043FD10BD01F075
:1003000014FC1146FFF7DAFF04F00AFB01F03AFD96
:1003100003B4FFF7EDFF03BC01F05CFD0948804723
:1003200009480047FEE7FEE7FEE7FEE7FEE7FEE7D7
:10033000FEE7FEE7FEE7FEE704480549054A064BEF
:1003400070470000B52C00089901000858480020AB
:1003500058590020584900205849002010B500F095
:1003600009F9001D10BD00BFD15A00000FB40449A7
:1003700010B503AA029800F0B3F910BC5DF814FBA5
:10038000A401002004F016B90B460146184600F0FF
:100390002BBD30B505460B462A4613F8014B12F823
:1003A000010B08B1A042F8D01CB1002802D06D1C8E
:1003B000F1E7284630BD40EA0103024630B59B070D
:1003C00010D14FF0013400E008C208C91D1B9D4345
:1003D00015EAC41FF8D013F0FF0102F8011B0DD07D
:1003E0001B0AF8E711F8013B002B02F8013B05D08E
:1003F00011F8013B002B02F8013BF3D130BD10B5E1
:10040000431C02E010F8011B71B18107FAD14FF0D3
:10041000013202C88C1A8C4314EAC211F9D0C01AF6
:100420000A0603D0C01E10BDC01A10BD0A0401D0B8
:10043000801E10BD0902FCD0401E10BD032A40F2F0
:10044000308010F0030C00F0158011F8013BBCF176
:10045000020F624498BF11F801CB00F8013B38BF8E
:1004600011F8013BA2F1040298BF00F801CB38BF9C
:1004700000F8013B11F0030300F0CD84083AC0F00E
:10048000088051F8043B083A51F804CBA0E8081062
:10049000F5E7121D5CBF51F8043B40F8043BAFF395
:1004A0000080D20724BF11F8013B11F801CB48BFEF
:1004B00011F8012B24BF00F8013B00F801CB48BF25
:1004C00000F8012B7047000030B44FF0013C50F8A9
:1004D000042B51F8043BCCFA52F4D51A20D1FCB9C4
:1004E00050F8042B51F8043BCCFA52F4D51A17D12A
:1004F000B4B950F8042B51F8043BCCFA52F4D51A95
:100500000ED16CB950F8042B51F8043BCCFA52F4DC
:10051000D51A05D1002CDAD030BC4FF0000070475E
:1005200029BAB1FA81F111F01801D1F1200084400B
:10053000F2D1CA40CB4012F0FF0213F0FF0330BCEF
:10054000D01A7047704770477047000070B5064C6E
:100550007C44064D7D4404E0204601680844804701
:10056000241DAC42F8D170BD6C6100006C610000CC
:1005700070470000004870476C02002070B50446C8
:1005800085690068C10601D5302600E02026C00735
:1005900007D070BDD4E9012130469047206A401C45
:1005A00020626D1EF6D570BD70B504468569007871
:1005B000C00707D170BDD4E9012120209047206AEF
:1005C000401C20626D1EF6D570BD09684A0501D534
:1005D00040B27047C905FCD500B2704709684A05AA
:1005E00001D5C0B27047C905FCD580B2704770B55F
:1005F0000C460546012A05D02878800600D5EA6910
:10060000002302E0012305E05B1C934202D2E05C80
:100610000028F9D1A869E618C01AA861286A184408
:1006200028622846FFF7AAFF04E0D5E9012114F863
:10063000010B9047B442F8D32846FFF7B5FF70BDD1
:100640002DE9F0410646002410687529314616A5AB
:1006500010D0FFF7BAFF002802DA404213A507E0E6
:1006600031688A0701D512A502E0490704D511A512
:10067000012401E0FFF7B2FF00210A2206F124075E
:1006800009E0B0FBF2FCB0FBF2F302FB1C003030DF
:1006900078541846491C0028F3D123462A46304690
:1006A000BDE8F04100F0BFBC000000002D000000DC
:1006B0002B0000002000000011680268006A53054A
:1006C00001D508700AE0D30501D5088006E01306BD
:1006D00003D5C217C1E9000200E00860012070479D
:1006E000074B70B50D467B4401F087F80446284659
:1006F00001F0C2F810B14FF0FF3070BD204670BD60
:10070000CB3E00002DE9FF5F15468A460446DFF820
:10071000AC80F8440027D8E900103E46CDE900102F
:1007200010E03AF816106A4602A801F08BF9411C55
:1007300007D02178890603D5E269391891420DD88E
:100740000744761C2078800602D5E069B84205DDB2
:10075000AE42E6DB3AF816000028E2D1A069C01BE1
:10076000A0612046FFF70AFFD8E90010CDE900108C
:10077000002017E03AF818106A4602A801F062F962
:10078000B0F1FF3F81460BD000250DF1080B05E0CD
:10079000D4E901211BF8050090476D1C4D45F7D3A6
:1007A00008F10100B0428046E4DB206A3844206250
:1007B0002046FFF7F9FEBDE8FF9F00009E570000AE
:1007C0002DE9F0418046D21D22F007020025D2E932
:1007D0000002F52915A614D0011E72F1000106DAF7
:1007E0000023D0EB030063EB020211A608E0D8F867
:1007F00000108B0701D50FA602E0490701D50EA610
:1008000001251146002408F1240704E000F0C6FB8E
:1008100030323A55641C50EA0102F7D12B46324679
:1008200021464046BDE8F04100F0FDBB000000005D
:100830002D0000002B0000002000000030B400213B
:1008400000F1240408E002F00705D208303542EA3E
:100850004372DB086554491C52EA0305F3D104686E
:10086000002310A2250708D504F020040C4304D06F
:10087000C46901230CA2641EC46130BC00F0D3BB68
:1008800010B5044621461068FFF7A8FE0246204630
:10089000BDE810400023D1E7D21D22F00701D1E9C5
:1008A0000023CBE70000000030000000F0B40D464C
:1008B0000188090502D5214C7C4402E01F4C7C4490
:1008C0000E34002100F1240608E002F00F0712099F
:1008D000E75D42EA03721B097754491C52EA030799
:1008E000F3D102780023120704D5702D06D009B188
:1008F000022311342246F0BC00F095BB01231034D2
:10090000F8E770B504460D4621461068FFF766FE0D
:10091000024629462046BDE870400023C6E7D21DA6
:1009200022F00703D3E90023C0E70368126843F00D
:10093000200303600823C3610023B7E700560000CB
:100940002DE9F05F894604464FF0000ADFF874B1E4
:10095000FB44C0F820A02046E1688847002874D0F6
:10096000252806D0D4E901219047206A401C206246
:10097000F1E700265F462046E168884720280546C3
:1009800007DB312D05D2781910F8200C08B1064389
:10099000F1E7B00701D526F00406C4F81CA0002733
:1009A000C4F818A02A2D09D0284605F03EFA38B31D
:1009B00004EB8708303DC8F8185019E059F8041BBB
:1009C000204604EB87029161E1688847012F0546C4
:1009D00018D1E069002820DA26F020061DE0D8F8BA
:1009E000180000EB800005EB40003038C8F8180014
:1009F0002046E1688847054605F017FA0028EED141
:100A0000012F0AD02E2D08D12046E16888477F1C8F
:100A10000546022F46F02006C4DBA069002803DA51
:100A2000404246F00106A061F00701D026F0100612
:100A30006C2D0BD0682D09D04C2D39D06A2D35D0B6
:100A4000742D35D07A2D33D016E038E0E1682F468A
:100A500020468847B842054609D16C2F26D04FF46E
:100A60008060E168064320468847054604E06C2F15
:100A70001AD04FF4807006430DB3A5F14100192838
:100A800002D8203546F400664A46294620462660AC
:100A90004E46FFF7CBFB80B101280BD0F61D26F0A8
:100AA000070000F1080956E74020E4E78020D8E776
:100AB0000020D6E706F104094DE7284652E7206AF0
:100AC000BDE8F09F905500002DE9F0410446164620
:100AD0000D464769007B80072ED0384600F0ECF9C0
:100AE00050BB3EB3012E02D0022E25D104E0204699
:100AF00000F0C6FE05441DE0384600F0EBF9E16861
:100B0000002841F01001E16005DA204600F058F8B5
:100B10000120BDE8F081C9030BD56268E16A91420A
:100B200000D81146A26911442269891A814200DD68
:100B300008460544002D01DA0220EAE7E16A606810
:100B4000E268814206D29103E06203D522F40031CB
:100B500041F01002A6690027AE4213DCE16A81422F
:100B600001D90B4600E0034603EB060C2369ACEB0E
:100B7000030CAC4506DD814201D98C4600E0844679
:100B80009C4505D1A760276042F02000A5620DE0DA
:100B9000AD1BE669AE1B8142A66000D90846C01AAB
:100BA000281A20605819606022F02000034908408C
:100BB000E060002084F84870ABE70000BFCFD7FFAB
:100BC000C16821F4001141F08001C1600021816001
:100BD000016070472DE9F047814614460E464FF0FC
:100BE000FF383248D5685769054209D03846A169AF
:100BF00000F068F9002811DB2C48C0430540E5608F
:100C00002B4632464946384600F047F9A16920F0A4
:100C10000042B21A11440028A16103D02046FFF718
:100C2000CFFF4046BDE8F08770B504460569C06A4D
:100C30006168884200D80846E16821F42011E1602B
:100C4000C90312D5A84208D02246411B2846FFF707
:100C5000C1FF10B14FF0FF3070BD0020E562C4E964
:100C60000150E06820F48030E060002070BD10B5D5
:100C70000446C06820F02000E060A16AA0698842B4
:100C80000DD02046FFF7D0FFE06820F4405040F040
:100C90001000E060A06AA0612069E062606044F238
:100CA0004001E0688843E06010BD000010000200D1
:100CB00010B54248542100F011FF4148542100F082
:100CC0000DFF4048542100F009FF3F493B483C4A92
:100CD0003F4B08603D490A603A491960531C03655F
:100CE000481C1065012008653B48344A39A1784406
:100CF00000F00AFE20B9384878440A3800F0E7FED0
:100D000037482F4A35A1784400F0FEFD20B9344819
:100D100078440A3800F0DBFE32482A4A2FA1784492
:100D200000F0F2FD20B92F4878440A3800F0CFFED9
:100D300040232248DC000021224600F0C2FD20B101
:100D400025487844543800F0C2FE1D48224640230E
:100D5000002100F0B6FD20B121487844543800F05D
:100D6000B6FE184822461023002100F0AAFD0028F4
:100D700006D01C487844BDE81040563800F0A7BEA5
:100D800010BD104870B5006D20F001040B4800F054
:100D900033FE0B4800F030FE0A4800F02DFE09E05B
:100DA000206D20F00105204600F026FE204600F0D0
:100DB000CEF82C46002CF3D170BD0000500100206D
:100DC000A4010020F8010020000000200400002001
:100DD00008000020720000000352000077000000AD
:100DE000EF510000DB5100002DE9F04107461546A8
:100DF0000E46102000F07CF804000AD06760C4E9B9
:100E0000026500F071F80168216004600020BDE80F
:100E1000F0810120FBE710B5203AC0F00B80B1E86B
:100E20001850A0E81850B1E81850A0E81850203A1F
:100E3000BFF4F5AF5FEA027C24BFB1E81850A0E828
:100E4000185044BF18C918C0BDE810405FEA827C42
:100E500024BF51F8043B40F8043B08BF7047D20759
:100E600028BF31F8023B48BF11F8012B28BF20F8FA
:100E7000023B48BF00F8012B70470EB5CDE90001D9
:100E8000FFF7BDFA029069460120ABBE0EBD08B562
:100E9000694600900220ABBE08BD1FB58DE8070073
:100EA00069460520ABBE04B010BD1FB58DE80F002C
:100EB00069460620ABBEF6E708B5694600900920F2
:100EC000ABBE08BD1CB5CDE9000169460A20ABBE2A
:100ED0001CBD704708B5694600900C20ABBE08BD2C
:100EE000004870474C0200200048704784020020F0
:100EF00070B5064600F03EFE056806F10B0020F0D6
:100F00000704B4429CBF002070BD2B466A68BAB18A
:100F10001068A04210D304F1080188423CBF506819
:100F2000586007D35168101941601168091B0160AE
:100F300058601460101D70BD13465268002AE7D136
:100F40002146284600F022FE0028DED170BD70B593
:100F50000446051F00F00EFE0068002C14BF446814
:100F600070BD002C18BFAC423CBF20466468F8D36B
:100F700001680A18AA4218BF456003D12A680546CD
:100F80001144016028684119A1421CBF6C6070BD0A
:100F90006168696021680844286070BD30B5B0F1AF
:100FA0000A0271F100034FEA900E4EEA817EB0EB27
:100FB0000E0061EB91014FEA101E4EEA017E10EB2C
:100FC0000E0041EB11114FEA102E4EEA016E10EBAC
:100FD0000E0041EB11214FEA104E4EEA014E10EB8C
:100FE0000E0041EB1141401841F100014FEAD000E1
:100FF00040EA41704FEAD1014FEA810444EA90741B
:1010000010EB800544EB01046D1944EB0404521B02
:10101000A3414FF0000348BF0A3200D530BD401C49
:1010200041F1000130BD2DE9F0470D469946924649
:10103000044600F124080168880604D5E06921F01F
:101040001001216000E00120A84201DD471B00E003
:101050000027A1697A1902EB0900081AA06120781B
:10106000C00602D42046FFF789FA002608E0D4E93A
:1010700001211AF806009047206A401C761C206265
:101080004E45F4DB2078C0060AD52046FFF776FAF5
:1010900006E0D4E9012130209047206A401C2062FC
:1010A000381EA7F10107F4DC07E0D4E9012118F8A4
:1010B00005009047206A401C2062281EA5F101050A
:1010C000F3DC2046FFF770FA2078000602D50220F4
:1010D000BDE8F0870120FBE72DE9FF4F0C461E46D7
:1010E0004FF0FF378BB0D2E90001DDF860800A9045
:1010F0008A46C1F30A5505B93D46002108464FF01E
:101100000000BAF1000F00F4400005DA00EB8000A7
:101110004FF4400101EA50004FEA9059B9F1010F34
:1011200000DDB9460A9850EA4A000ED044F6105045
:10113000A5F2FF3545432F14B8F1000F1ED07542BC
:10114000291E1EDDC9F100021CE0B8F1010F4FF0AD
:10115000000001D0302103E0F24305E02154401C9F
:10116000B042FBDB30460022002121540B99C1F82C
:101170000880C1E900200FB0BDE8F08FBD1B6D1CD9
:10118000DEE74A4600DA694206A800F089FD06ABB0
:1011900093E8070003AB83E8070050460A9904F080
:1011A0005AFA8DE80700A0F500501F380090039808
:1011B000002D0ADD42F21F014A460844002303A91C
:1011C0000390684604F0C4FC09E0A0F500504A46CC
:1011D0001F38002303A90390684604F0CEFC8DE875
:1011E00007000004000C03D04FF0FF30410800E07E
:1011F0001046B8F1000F03D00022009215461EE001
:10120000751E05D4FFF7CAFE303262556D1EF9D542
:10121000B3460122084302D000227F1C04E020785C
:10122000302801D100227F1E002A099784D01DE0BA
:10123000112D07DAFFF7B2FE303262556D1C50EA0D
:101240000102F5D1084302D00098C8B10EE0002198
:10125000681E05E0235C625C63542254401E491CF6
:101260008142F7DBAB46A81B401E0990002004F822
:101270000B000B98099AC0F80880C0E9002B7AE7A8
:1012800011264FF0000857E72DE9F04F8846044635
:10129000D21D22F0070191B0D1E90001CDE90A0188
:1012A00004F0ABFD02460B98C00F01D02D2007E0E3
:1012B0002068810701D52B2002E0202101EAC0002F
:1012C000032A099001D0072A05DB03464146204640
:1012D00000F0A6FC0BE12078800601D5E06900E073
:1012E0000620B8F1650F814606D0B8F1660F18D018
:1012F000B8F1670F70D131E00020B9F1110F009003
:1013000001DB112301E009F101030AAA01A90CA8DC
:10131000FFF7E2FEDDE90C70002609F101058346C6
:1013200047E001204B4600904FF000470AAA01A970
:101330000CA8FFF7D1FEDDE90DB00C995D46002643
:1013400010B909F101000D18B9EB050003D4C0F183
:10135000FF3609F10105A5EB09002BE0B9F1010FFA
:1013600001DA4FF001090020B9F1110F0090484651
:1013700001DD112300E003460AAA01A90CA8FFF72A
:10138000ABFEDDE90C704D46002683462078000751
:101390000AD4AB4500DA5D4601A8012D04DD4119F0
:1013A00011F8011C302907D04F4502DA17F1040F5C
:1013B00004DA012082460FE06D1EEEE7002F02DC0A
:1013C000ED1B3E4403E0781CA84200DD7D1CB81BE9
:1013D00000F1010A4FF000472078000703D4AA4526
:1013E00001DB4FF0FF3A0021B7F1004F0DF1430848
:1013F0008DF8431024D002202B23002F01DA7F42E6
:101400002D230A21021EA0F1010000DC5FB197FB31
:10141000F1FC97FBF1F201FB1C7C17460CF1300C40
:1014200008F801CDEEE7A8F1010003702188090555
:1014300001D5452100E06521A0F1010800F8011C5B
:1014400009980FA9A1EB0807FF1D00B10120411960
:1014500001EBEA70A1693844081A401EA0612078A7
:10146000C00602D42046FFF789F8099828B1D4E9CC
:1014700001219047206A401C20622078C00622D5B6
:101480002046FFF77BF81EE0002E04DBB34502DDAB
:1014900001A8805D00E03020D4E901219047206A56
:1014A000401C2062761CAAF101005FEA000A0AD102
:1014B000FFF760F8C0680168405CD4E901219047FB
:1014C000206A401C2062281EA5F10105DCDC07E033
:1014D000D4E9012118F8010B9047206A401C2062D2
:1014E000381EA7F10107F3DC2046FFF75DF8032063
:1014F00011B041E62DE9F04F04460D46D21D22F011
:10150000070089B0D0E900974846394604F075FCD9
:101510000246F80F01D02D2307E02068810701D58E
:101520002B2302E0202101EAC0038DF820300BB10B
:10153000012000E00020032A824601D0072A04DBB4
:101540002946204600F06CFB3FE12078800601D45C
:101550000D2500E0E569C7F30A560D2D49DA002193
:101560004FEA175B08464FF00000002F00F44000E0
:1015700007DA00EB80004FF4400100EBD07001EA85
:1015800060008115012901DD4FF0FF3100224FEA93
:10159000850CBCF1180F06D31346ACF118004FF0C0
:1015A0008052C24003E04FF4801323FA0CF30CF195
:1015B0000C0CBCF1200F04D3ACF1200C09FA0CF098
:1015C00001E007FA0CF000294FF0004801DD18B9DE
:1015D0000FE00ED140450CD319EB02095F4121B950
:1015E000404502D19F4329EA0209BBEB175F00D0B7
:1015F000761C2088000502D57B48784402E07A48B2
:101600007844193808AA302302F80A30037C0AF11A
:101610000101002E0AF1020A53546A4602DC4FF01F
:10162000300101E04FF031014FF001088DF800105A
:1016300002D0A6F2FF3603E059EA470100D06B4E14
:10164000002D02DC2178090704D54FF002082E2175
:101650008DF80110C44600210BE0C7F303433F019E
:10166000C35C491C6D1E02F80830052908F1010809
:1016700001DA002DF1DC00210CE000EB1973491CAC
:101680001B786D1E082902F808304FEA091908F185
:10169000010801DA002DF0DC21688B0602D516E086
:1016A000A8F10108E04505DD02EB080313F8013C51
:1016B000302BF5D0B8F1000F09DD02EB080313F869
:1016C000013C2E2B03D1090701D4A8F10108002DFC
:1016D00005DD3E2102F808106D1E08F10108407C6E
:1016E000002E02F8080008F1010804DA2D207642E5
:1016F00002F8080002E02B2002F808000A214FF44B
:101700007A70864208F101080BDB96FBF0F3303368
:1017100002F8083096FBF0F308F1010800FB1366AD
:1017200001E0642E0CDB642096FBF0F3303302F80A
:10173000083096FBF0F308F1010800FB136601E0A6
:101740000A2E06DB96FBF1F0303002F8080008F1B3
:10175000010896FBF1F001FB1060303002F8080040
:10176000A16908F1010808EB050202EB0A00081A5A
:10177000A0612078C00602D42046FEF7FFFE216A51
:1017800008AE01EB0A00206204E0D4E9012116F85A
:10179000010B9047BAF1010AF7D22078C00602D5B2
:1017A0002046FEF7EBFE6E4609E016F8010B3E28D8
:1017B0000FD0D4E901219047206A401C2062B8F183
:1017C0000108F2D22046FEF7EFFE09B00320BDE883
:1017D000F08F206A2844206203E0D4E90121302000
:1017E00090476D1EEBD3F8E71649000002FCFFFF9F
:1017F00001694A1C02610878704700B58FB0CDE9D5
:1018000001310021059105497944CDE903101146C4
:101810006846FFF795F80FB000BD0000E5FFFFFF39
:1018200010B5436913B1AFF3008001E0FEF7DFFEAE
:10183000012010BD127800F124010A7000224A70C4
:101840000122EDE711684FF0FF32E9E710B5436977
:1018500013B1AFF3008001E0FEF754FF012010BD8B
:10186000128800F1240182840022C2840122EDE763
:1018700011684FF0FF32E9E7007B00F0800070470D
:1018800010B50146C268900703D0900607D5886A54
:101890000AE000F073F901210160881E10BD8B6918
:1018A000486818440B69C01A91F848301BB191F888
:1018B0004910401A10BD1103FCD50028FADD401E66
:1018C00010BD70B5C468A50713D0650211D4B2F578
:1018D000807F09D0B2F5007F06D0B2F5806F08D1C5
:1018E000012300F1240106E05D1E6FF07F46B54242
:1018F00001D3012070BD0161C361416024F47061B6
:101900001143C160002070BD2DE9F0410C46164620
:10191000070047D0104600F06FF82078611C61285E
:101920000AD0722802D077283CD102E00125002499
:1019300005E00225042402E0082448F2020511F81B
:10194000010B2B2806D0622809D011F8010C74284D
:101950000AD00BE045F0030544F00204EFE745F040
:10196000040544F00104EAE744F010043846214637
:10197000FFF783FA411C15D00021316171604FF4EB
:101980000071F560F1617061200704D530460222D4
:101990000021FFF799F8306D40F0010030653046C6
:1019A000BDE8F0810020FBE72DE9F0410D46064639
:1019B000104C206DC10704D0410804D020F0010470
:1019C000F7E722460EE05420FFF792FA07000ED008
:1019D000206D47F00101084354212065384600F08E
:1019E0007DF83A4629463046BDE8F0418CE70020B4
:1019F000D6E70000500100202DE9F04704464FF0E3
:101A000000094FF0FF37C568D4E90486A80707D05E
:101A10002046FFF709F93046FFF739FA002802DAC5
:101A20003846BDE8F087280502D54046FFF78FFA13
:101A30004C21204600F052F8206D20F00100206576
:101A40004846EEE72DE9F04116460C460546FEF7FE
:101A500085FC036893F80101012807D0FF2C12D8F8
:101A6000185D80B101202C70BDE8F081D3F807012A
:101A70003246214603F20713C7182846BC46BDE884
:101A8000F041002360474FF0FF30EDE72DE9F041D2
:101A90000646FFF729FA8046454613E016B1E0688E
:101AA000B0420ED120682860D4E90101D8F8007056
:101AB00088472046FFF74BFAD8F80000B842EBD130
:101AC00000E025462C68002CE8D1BDE8F08110B577
:101AD00000F066F9BDE8104000F05DB94FF000027B
:101AE00000B5134694469646203922BFA0E80C5014
:101AF000A0E80C50B1F12001BFF4F7AF090728BFEF
:101B0000A0E80C5048BF0CC05DF804EB890028BF6A
:101B100040F8042B08BF704748BF20F8022B11F093
:101B2000804F18BF00F8012B70477546FFF7D8F9B2
:101B3000AE4605006946534620F00700854618B0BA
:101B400020B5FEF7F9FBBDE820404FF000064FF04E
:101B500000074FF000084FF0000BAC46ACE8C0099E
:101B6000ACE8C009ACE8C009ACE8C00921F0070145
:101B70008D46704700487047540200200048704767
:101B80004C020020704770477047704738B50446D4
:101B90000A4600206946AFF30080002808BF38BD20
:101BA00002460099204600F01BF9012038BD0120B3
:101BB00000F049B9F8B5AFF30080054600200C46A7
:101BC000102000BF0646A819A0420DD9324669462A
:101BD0000020AFF30080070008BF00F034F9009840
:101BE000A04218BF0546C419FFF7C4FF05600746A9
:101BF000F01D20F007004619284600F00AF8B4420C
:101C000008BFF8BDA21B31463868BDE8F84000F0B7
:101C1000E7B800210160C0E901107047102070474B
:101C20002DE9F0411F46044603260168072A01F406
:101C3000006004DB08B116A505E016A503E008B1B5
:101C400015A500E015A521F010002060A069C01EB8
:101C5000A0610FB1401EA0612046FEF78FFC4FB17E
:101C6000D4E9012138469047206A401C2062C01CFC
:101C7000206206E0206AFAE7D4E9012115F8010B99
:101C80009047761EF8D22046FEF78EFCBDE8F08124
:101C90004E414E006E616E00494E4600696E660010
:101CA0002DE9F047814616468AB0354878440DC87C
:101CB0008DE80D0032487844801C03AC0DC884E8E0
:101CC0000D0041F69B300844372190FBF1F290FB68
:101CD000F1F5A5F1800501FB12041B3C02D564421D
:101CE000012000E00020DFF898A080460027FA4499
:101CF000AAF1BE0A0EE0E0070AD03246684607EBBA
:101D0000470101230AEB810103F037FF8DE807004B
:101D100064107F1C002CEED1194F7F44AE3F19E0B8
:101D2000E80715D007EB04100DF1180A90E80E0033
:101D30008AE80E00C068F04201D198190890324636
:101D4000012306A903A803F018FF03AB83E80700EB
:101D50006D10641C002DE3D14FF00103324669463B
:101D6000B8F1000F03A802D003F0F2FE01E003F087
:101D700004FFC9E90001C9F808200AB0BDE8F087EE
:101D8000F442000010B50446AFF300802046BDE8E1
:101D90001040FEF7BDBA002801D000F01BB8704714
:101DA00010B5014602A000F035F8012010BD00007A
:101DB00053494752545245443A205265646972650A
:101DC00063743A2063616E2774206F70656E3A20E9
:101DD0000000000001491820ABBEFEE7260002000B
:101DE000034640688C46002818BF88423CBF034623
:101DF0004068F8D318681844884207D00CF10300F3
:101E000020F00700001D411A521A0146081D0A6001
:101E1000FFF79DB870B505460C460A2000E06D1C22
:101E200000F018F835B128780028F8D102E0641CD9
:101E300000F010F814B120780028F8D1BDE8704007
:101E40000A2000F007B810B500F00CF8BDE810400B
:101E5000FFF7A1BF08B569468DF800000320ABBEAF
:101E600008BD000010B5012805D0002103A0FFF730
:101E7000D1FF012010BD09A1F8E7000053494752E6
:101E8000544D454D3A204F7574206F66206865614A
:101E900070206D656D6F7279000000003A20486512
:101EA0006170206D656D6F727920636F72727570ED
:101EB0007465640080B582B08DF8070000919DF8CC
:101EC000070048B9FFE74FF48070002100F084FA62
:101ED000009800F06BFA07E00098012100F07CFA0E
:101EE000002000F063FAFFE702B080BDFFE7FEE7E5
:101EF00082B001908DF803109DF8030060B1FFE7F8
:101F00000199012000FA01F247F20041C4F20001F8
:101F10000868104308600BE00199012000FA01F203
:101F200047F20041C4F20001086890430860FFE7EF
:101F300002B0704784B0039002910020019000909D
:101F400047F20041C4F2000108680190039A40F68C
:101F5000FE7000FA02F2019890430190029A106814
:101F6000D2F804C09368D26840EA0C0018431043CA
:101F700000900098039A00FA02F201981043019031
:101F80000198086004B0704783B00290ADF8061065
:101F90000020009047F20040C4F200000090029838
:101FA0000099084408300090BDF8060000990860C8
:101FB00003B0704782B001908DF803109DF80300C4
:101FC00068B1FFE701980109012000FA01F247F228
:101FD0000441C4F200010868104308600CE0019855
:101FE0000109012000FA01F247F20441C4F20001A4
:101FF000086890430860FFE702B070477047000030
:1020000088B00790069100200590049003900290FC
:10201000019000900698C07800F00F000590069897
:10202000C078C006002806D5FFE706988178059895
:1020300008430590FFE70698007800284BD0FFE79B
:1020400007980068019000200390FFE70398072895
:102050003DD8FFE703990120884002900698008848
:102060000299084004900498029988422AD1FFE717
:1020700003988000029002990F20884000900099F8
:102080000198884301900598029900FA01F101989E
:10209000084301900698C078282806D1FFE70399E5
:1020A00001208840079948610BE00698C0784828CD
:1020B00006D1FFE703990120884007990861FFE7EF
:1020C000FFE7FFE7FFE7039801300390BEE70198C1
:1020D00007990860FFE706980088B0F5807F50DB1D
:1020E000FFE707984068019000200390FFE70398FE
:1020F000072842D8FFE7039800F108010120884033
:102100000290069800880299084004900498029969
:1021100088422DD1FFE703988000029002990F209A
:102120008840009000990198884301900598029991
:1021300000FA01F10198084301900698C078282818
:1021400008D1FFE7039800F10801012088400799B2
:102150004861FFE70698C078482808D1FFE7039850
:1021600000F108010120884007990861FFE7FFE7B7
:10217000FFE7039801300390B9E701980799486099
:10218000FFE708B07047000083B002904EF62C5075
:10219000CEF200000068C00F68B1FFE74EF62C5188
:1021A000CEF20001086840F000400860029988699A
:1021B0000230886170E04EF62450CEF200000068D4
:1021C00040F2AC21C2F20001019108624EF62850A3
:1021D000CEF20000007881F824004EF62950CEF2AD
:1021E0000000007888624EF63850CEF20000006899
:1021F000C8624EF62A50CEF20000008808864EF6DD
:102200002C50CEF20000006848634EF63050CEF2FB
:102210000000006888634EF63C50CEF20000006873
:10222000C86340F2EC21C2F2000100200860FFE721
:1022300040F2EC20C2F20000006808B9FFE7F7E7BF
:102240000298006840F2AC21C2F2000100910860DF
:102250000298406848600298806888600298C06868
:10226000C860029800690861029840694861029854
:10227000806988610298C069C86140F2EC21C2F2AD
:10228000000100200860FFE740F2EC20C2F20000ED
:10229000006808B9FFE7F7E703B07047FFE7FEE71C
:1022A0007047000084B003900020029001900F203E
:1022B00000900398C078C0B3FFE74EF60C50CEF202
:1022C00000000068C043C0F3022002900298C0F1F1
:1022D0000400019000980299C8400090039840784B
:1022E00001998840029003988078009901400298F3
:1022F000084302900298000102900298039909781D
:102300004EF20042CEF2000288540398027802F0A6
:102310001F01012088404EF20011CEF2000141EA77
:10232000D20121F0030108600FE00398027802F067
:102330001F01012088404EF28011CEF2000141EAD7
:10234000D20121F003010860FFE704B070470000EC
:1023500081B0009000980021C0F2FA5108434EF677
:102360000C51CEF20001086001B0704783B00290BA
:1023700001910020009041F22C01C4F20201086892
:102380000090009820F480600090009820F478403D
:102390000090029A009810430090019A0098104310
:1023A00000900098086003B07047000082B0019070
:1023B0000020009041F22C01C4F202010868009054
:1023C000009820F00F000090019A009810430090B0
:1023D0000098086002B0704783B002908DF8071033
:1023E0000020009041F22C00C4F20200006800902E
:1023F000009820F4F87000909DF8070028B1FFE7DE
:10240000029900980843009008E002990098084358
:102410000090009820F480700090FFE7009841F24F
:102420002C01C4F20201086003B0704782B0019031
:102430000020009041F20401C4F2020108680090FB
:10244000009820F4E0600090019A009810430090FA
:102450000098086002B0704782B001908DF80310B8
:102460009DF8030048B1FFE7019A41F21401C4F25C
:10247000020108681043086008E0019A41F2140163
:10248000C4F20201086890430860FFE702B0704799
:1024900082B001908DF803109DF8030048B1FFE76A
:1024A000019A41F21C01C4F202010868104308605D
:1024B00008E0019A41F21C01C4F20201086890434D
:1024C0000860FFE702B0704782B001908DF80310FA
:1024D0009DF8030048B1FFE7019A41F21801C4F2E8
:1024E000020108681043086008E0019A41F21801EF
:1024F000C4F20201086890430860FFE702B0704729
:1025000087B00690002005900490039002900190FF
:1025100041F20400C4F2020001680022C0F63C024D
:1025200011400391006800F4803002909DF80F0084
:102530000007002806D4FFE70399022000EB914032
:10254000039006E003996FF4F77000EB914003905D
:10255000FFE7029840B9FFE7039840F60011C0F288
:102560003D014843049019E041F20400C4F2020026
:1025700000688003002808D5FFE7039840F60011A3
:10258000C0F23D014843049007E0039841F2002166
:10259000C0F27A0148430490FFE7FFE741F20400EC
:1025A000C4F20200006800F00C000590059800904D
:1025B00040B1FFE7009804280BD0FFE700980828F7
:1025C0000ED011E0069941F20020C0F27A000860B6
:1025D00011E0069941F20020C0F27A0008600AE09A
:1025E00004980699086006E0069941F20020C0F2BE
:1025F0007A000860FFE741F20401C4F202010868B2
:1026000000F0F0000590059800090590059A46F243
:10261000A400C0F60000825C0192069B1A68DDF8F7
:1026200004C022FA0CF25A600A6802F4E0620592D1
:10263000059A120A0592059A825C0192069B5A68D5
:10264000DDF804C022FA0CF29A60096801F46051C6
:1026500005910599C90A05910599405C0190069973
:102660004868019AD040C86041F22C00C4F20200D0
:10267000016801F00F010591059A46F27401C0F658
:102680000001895C0191069A5168019BB1FBF3F14D
:102690005161006800F4F8700590059800090590F4
:1026A000059800F00F0146F28400C0F6000030F8F3
:1026B0001100019004980199B0FBF1F006990861AE
:1026C00007B0704780B58AB0DDF830C00990089136
:1026D0000792069340F2F020C2F200000290FFE75A
:1026E0000298007818B9FFE700F00CFDFFE7FFE75C
:1026F00040F2F020C2F200000490099802282AD883
:10270000FFE7EFF311804FF0200181F31188019072
:102710000498099901EB410100EBC10018300390C6
:10272000099878B1FFE7089803990860079803991A
:10273000486006980399886003990020086103990E
:10274000C860FFE70C9803994861019880F31188ED
:102750000020059003E04FF0FF300590FFE705985B
:102760000AB080BD80B500F0CDFC80BD80B586B0DC
:1027700005900491039240F2F020C2F20000019013
:10278000FFE70198007818B9FFE700F0BBFCFFE70E
:10279000FFE7EFF311804FF0200181F311880090E3
:1027A00005980499039A00F007F80290009880F3C6
:1027B0001188029806B080BD80B58AB00990089152
:1027C000079208980490099800EB400140F2F0202D
:1027D000C2F2000000EBC10018300390039840697A
:1027E000029040B1FFE70298012819D0FFE7029854
:1027F00002282CD032E0039800F0E0FC0590059808
:102800000799884203D2FFE70020069007E0079867
:10281000069003980499079A00F05AFFFFE720E01A
:10282000039800F0CBFC059005980799884203D2E5
:10283000FFE70598019002E007980190FFE70198F3
:10284000069003980499069A00F042FF09E0039865
:102850000499079A00F0CAFE069002E00020069054
:10286000FFE706980AB080BD82B080B584B00793B8
:1028700006920390029106A80090039802996A4676
:1028800000F008F80190019804B0BDE8804002B063
:102890007047000080B5A4B023902291219207A830
:1028A0001B9040201C9000201D9023991F911E908A
:1028B000FFE7229800788DF883002298013022905B
:1028C0009DF8830008B9FFE76DE19DF88300252896
:1028D00040F05C81FFE70020189001201A90FFE78C
:1028E000229800788DF883009DF8830023380146F4
:1028F00004910D2829D80499DFE801F01F27272724
:102900002727272717270727270F189840F00100A8
:1029100018902298013022901AE0189840F0020096
:10292000189022980130229012E0189840F004008C
:1029300018902298013022900AE0189840F0080080
:10294000189022980130229002E000201A90FFE7B0
:10295000FFE71A980028C3D1FFE700201790FFE790
:10296000229800788DF883009DF88300302805DBDD
:10297000FFE79DF883003A2801DBFFE710E022988B
:1029800001302290179800EB80019DF8830000EB46
:10299000410030381790FFE701200028E0D1FFE721
:1029A00000201990229800788DF883009DF883000C
:1029B0002E2825D1FFE7229801302290FFE72298A8
:1029C00000788DF883009DF88300302805DBFFE751
:1029D0009DF883003A2801DBFFE710E022980130E0
:1029E0002290199800EB80019DF8830000EB4100D4
:1029F00030381990FFE701200028E0D1FFE7FFE71A
:102A0000229800788DF88300FFE79DF883006C28FA
:102A100005D0FFE79DF88300682808D1FFE72298DA
:102A200001302290229800788DF8830000E004E0C5
:102A3000FFE701200028E8D1FFE79DF88300014669
:102A40000391252800F09880FFE7039858284FD07D
:102A5000FFE70398632814D0FFE7039864281FD08A
:102A6000FFE70398702876D0FFE70398732853D0C8
:102A7000FFE70398752827D0FFE70398782837D019
:102A80007FE0219A1068011D116000681A901A9861
:102A90008DF81B009DF81B101BA800F06BFD71E06A
:102AA000219A1068011D116000681A901A99199BEB
:102AB0001798DDF860C06A46C2F804C010601BA811
:102AC0000A2200F09BFB5DE0219A1068011D116055
:102AD00000681A901A99199B1798DDF860C06A4629
:102AE000C2F804C010601BA80A2200F06DFC49E087
:102AF000219A1068011D116000681A901A99199B9B
:102B00001798DDF860C06A46C2F804C010601BA8C0
:102B1000102200F059FC35E0219A1068011D116067
:102B200000680590FFE7059800788DF88300059808
:102B3000013005909DF8830008B9FFE70AE09DF891
:102B400083101BA800F016FDFFE71E98B0F1FF3FB1
:102B5000E9DCFFE716E0219A1068011D11600068AA
:102B60001A901A99684600224260082303601BA845
:102B7000102200F029FC05E01BA8252100F0FAFC3A
:102B800000E0FFE722980130229005E09DF88310D5
:102B90001BA800F0EFFCFFE7FFE71E98B0F1FF3F36
:102BA0003FF787AEFFE71E9801280EDBFFE71D9871
:102BB00030B1FFE723981D9A07A9FFF7D7FDFFE77C
:102BC0001D991E9808441E90FFE71E9824B080BDF2
:102BD0007047000084B0002003908DF80B00019036
:102BE00042F20001C4F20201086820F0030008600C
:102BF000086840F00300086041F20401C4F20201D9
:102C0000009108680860086840F40050086008688F
:102C100040F4A060086008684FF6FF72CFF2C072FF
:102C2000104008600868039003980022C0F63C0238
:102C3000104303900398086041F20001C4F20201BE
:102C4000086840F080700860FFE741F20000C4F2BD
:102C5000020000688001002801D4FFE7F5E741F297
:102C60000401C4F20201086820F00300086008684B
:102C700040F002000860FFE741F20400C4F20200E5
:102C8000006800F00C00082801D0FFE7F4E704B06A
:102C90007047000040F2B070C2F20000006840B11E
:102CA000FFE740F2B071C2F2000108680138086025
:102CB000FFE7704780B54EF68851CEF200010868F4
:102CC00040F47000086041F20002C4F20202106891
:102CD00040F00100106041F20401C4F202010868F2
:102CE0004CF20003CFF6FF031840086010684FF65F
:102CF000FF73CFF6F66318401060106820F4802050
:102D0000106008684FF6FF72CFF200721040086042
:102D100041F22C01C4F202010020086041F23001AE
:102D2000C4F20201086041F20801C4F202014FF44A
:102D30001F00086041F21C01C4F20201086840F063
:102D40008050086047F20C02C4F20002106840F0A4
:102D500001001060086820F08050086042F2000115
:102D6000C4F20201086840F090000860FFF732FFEB
:102D70004EF60851CEF200014FF00060086080BDB1
:102D80007047000080B582B044F60000C4F2000035
:102D900040F2255100F0B6F880B3FFE744F600009A
:102DA000C4F2000000F098F98DF80700FFE79DF8E5
:102DB000072046F24C51C0F600010020FFF754FDF9
:102DC000FFE79DF8070040F2BC71C2F2000101F07C
:102DD000D3FA0D2811D1FFE740F2BC70C2F2000017
:102DE000009000F1080140F21000C2F2000002F071
:102DF0004DFB009801F0B0FAFFE7FFE702B080BD9D
:102E000086B00590ADF812108DF8112000200390C7
:102E1000029001900090BDF8120040F66A118842BD
:102E200001D1FFE7FFE7059800909DF812004009E7
:102E30000390BDF8120000F01F00029002990120DB
:102E4000884001900398012804D1FFE700980C30D6
:102E500000900CE00398022804D1FFE7009810309E
:102E6000009003E0009814300090FFE7FFE79DF822
:102E7000110030B1FFE7019A00990868104308601B
:102E800005E0019A0099086890430860FFE706B0E2
:102E90007047000082B001908DF803109DF8030088
:102EA00030B1FFE70199888940F40050888105E03E
:102EB0000199888920F400508881FFE702B07047AB
:102EC00082B00190ADF8021000208DF80100BDF82D
:102ED0000200B0F5007F01D1FFE7FFE7019800880D
:102EE000BDF802100840000420B1FFE701208DF872
:102EF000010003E000208DF80100FFE79DF80100CC
:102F000002B0704786B00590ADF812100020039013
:102F1000029001908DF80300BDF8120040F66A118E
:102F2000884201D1FFE7FFE79DF8120040090190B8
:102F3000BDF8120000F01F000290029901208840A5
:102F400002900198012806D1FFE70598818902982F
:102F50000840029010E00198022806D1FFE705988A
:102F6000018A02980840029005E00598818A02983B
:102F700008400290FFE7FFE79DF8130003900399D4
:102F80000120884003900598018803980840039029
:102F9000029838B1FFE7039820B1FFE701208DF8D0
:102FA000030003E000208DF80300FFE79DF8030015
:102FB00006B0704780B58EB00D900C9100200B903C
:102FC0000A900990089007900C98808908B1FFE753
:102FD000FFE70D9807900D98008A0B900B984CF620
:102FE000FF7108400B900C98C1880B9808430B9018
:102FF0000B980D9908820D9880890B900B984EF6CE
:10300000F31108400B900C9988880A89104349896C
:1030100001430B9808430B900B980D9988810D98EC
:10302000808A0B900B984FF6FF4108400B900C984C
:1030300081890B9808430B900B980D99888201A801
:10304000FFF75EFA079843F60001C4F201018842D7
:1030500010D0FFE7079845F20001C4F20101884251
:1030600008D0FFE7079845F20041C4F20101884209
:1030700003D1FFE704980A9002E003980A90FFE763
:103080000A98192148430C9909688900B0FBF1F0AE
:103090000990099848F21F51C5F2EB11A0FB0102FB
:1030A0006FF00F0000EA52000B90099B0B9800098B
:1030B000642200FB12300890089A322000EB0210C4
:1030C000A0FB0110C0F343110B9808430B900B9821
:1030D0000D9908810EB080BD81B000900098808865
:1030E0006FF35F2001B0704782B00190ADF802101D
:1030F000BDF802006FF35F200199888002B070472D
:10310000FFE7FEE780B582B040F2F020C2F2000097
:10311000019001990320086101994861019846F2E4
:103120006A51C0F600018161019A40F2AC30C2F2EE
:103130000000D061019A4FF480601062019A002073
:103140009062019A5062019AD062019A1166019AC6
:1031500040F29C31C2F200015166019A1021916641
:10316000019908670199C866019948670198073075
:1031700046F26651C0F60001FDF71DF9BFF35F8FFF
:10318000019846F25F51C0F60001FDF714F9BFF354
:103190005F8F019920208871BFF35F8F02B080BDDF
:1031A00080B500F0E9FF00F0FDFF01F011F801F03B
:1031B00025F801F039F801F04DF880BD84B0039096
:1031C0000398006902900398C068019002980199E1
:1031D000884209D8FFE7039880680199401A02994C
:1031E00008440138009005E002990198C043084462
:1031F0000090FFE7009804B07047000010B58CB055
:10320000DDF83CC0DDF838C00B900A9109920893B4
:103210000A98B0F1FF3F04DCFFE70A9840420590AE
:1032200002E00A980590FFE70598069001200790B4
:10323000FFE706980999884209DBFFE70698099994
:1032400090FBF1F00690079801300790F1E708989D
:103250000799884203D9FFE708980790FFE70E987F
:1032600070B1FFE70A98002806D4FFE79DF83C00FC
:103270004007002804D5FFE70E9801380E90FFE7BD
:103280009DF83C008007002803D5FFE7089858B355
:10329000FFE79DF83C00C00730BBFFE70E9810B376
:1032A000FFE7FFE70E990020049041B1FFE707997F
:1032B0000E9A0020914238BF01200490FFE7049845
:1032C000C00778B1FFE70E9801380E900B982021C7
:1032D00000F050F90B98C068B0F1FF3F01DCFFE748
:1032E00000E0DFE7FFE7FFE70B98C068002869D43C
:1032F000FFE70A98B0F1FF3F08DCFFE70A98404279
:103300000A900B982D2100F035F90CE09DF83C0057
:103310004007002805D5FFE70B982B2100F02AF97C
:1033200000E0FFE7FFE70B98C068002849D4FFE7FB
:103330009DF83C00800700282ED5FFE79DF83C0053
:10334000C00748BBFFE7089830BBFFE70E9810B3F3
:10335000FFE7FFE70E990020039041B1FFE70799CF
:103360000E9A0020914238BF01200390FFE7039896
:10337000C00778B1FFE70E9801380E900B98302106
:1033800000F0F8F80B98C068B0F1FF3F01DCFFE7F0
:1033900000E0DFE7FFE7FFE70B98C06800280FD4E5
:1033A000FFE70B980A99099A089BDDF838C00F9C33
:1033B000EE46CEF80440CEF800C000F005F8FFE776
:1033C000FFE7FFE70CB010BD80B58CB0DDF83CC066
:1033D000DDF838C00B900A91099208930A9805907D
:1033E000012006900490FFE705980999884209D3C7
:1033F000FFE705980999B0FBF1F0059004980130BA
:103400000490F1E708980499884203D9FFE70898E7
:103410000490FFE79DF83C00C007C0BBFFE70E9893
:10342000A0B3FFE79DF83C008007002807D5FFE721
:10343000089820B9FFE730208DF80F0003E0202026
:103440008DF80F00FFE7FFE70E990020029041B1D1
:10345000FFE704990E9A0020914238BF01200290A4
:10346000FFE70298C00780B1FFE70E9801380E9081
:103470000B989DF80F1000F07DF80B98C068B0F124
:10348000FF3F01DCFFE700E0DEE7FFE7FFE70B9827
:10349000C06800286CD4FFE7FFE70898022804D32F
:1034A000FFE70898013808900BE00A980699B0FBEE
:1034B000F1F0079007980999884201D2FFE705E0EB
:1034C000FFE70999069848430690E6E7FFE70A9860
:1034D0000699B0FBF1F00790079806990A9A00FB4D
:1034E00011200A900B98079A45F6BC71C0F60001AE
:1034F000895C00F03FF80B98C068B0F1FF3F01DC39
:10350000FFE709E009990698B0FBF1F00690FFE7A4
:1035100006980028DBD1FFE79DF83C00C00730B3D8
:10352000FFE70E9810B3FFE7FFE70E990020019028
:1035300041B1FFE704990E9A0020914238BF012063
:103540000190FFE70198C00778B1FFE70E980138B6
:103550000E900B98202100F00DF80B98C068B0F188
:10356000FF3F01DCFFE700E0DFE7FFE7FFE7FFE702
:103570000CB080BD80B584B003908DF80B1003981B
:1035800080680190019801300399496888420FD8FA
:10359000FFE79DF80B0003990968019A8854019888
:1035A0000130039988600399C8680130C860FFE75B
:1035B000039841688068884215D1FFE70398016845
:1035C00082680069FFF7D2F803998968884205D0BC
:1035D000FFE703994FF0FF30C86003E00399002034
:1035E0008860FFE7FFE704B080BD000080B58AB0C7
:1035F000099008910792002005900998C0680390EF
:10360000FFE709980069049004980399884206D955
:10361000FFE704990398C0430844069008E009981E
:1036200081680398049A801AC04308440690FFE713
:10363000069809998968039A891A884203D2FFE794
:103640000698019005E0099880680399401A019056
:10365000FFE70198069006980799884203D2FFE792
:103660000698009002E007980090FFE70098069007
:103670000998406803990844029002980899069AAC
:10368000FCF7DCFE06990598084405900699089811
:103690000844089006990798401A079006990398DD
:1036A00008440390039809998968884203D1FFE789
:1036B00000200390FFE7BFF35F8F03980999C8606C
:1036C000FFE7079800289CD1FFE705980AB080BD66
:1036D00080B588B00790069105920798C06803905E
:1036E000079880680399401A0290029805998842C9
:1036F00012D9FFE7079840680399084401900198A0
:103700000699059AFCF79AFEBFF35F8F0398059917
:1037100008440799C8601FE0029804900798406821
:1037200003990844019001980699049AFCF786FED3
:1037300005980299401A04900798406801900198F2
:103740000699029A1144049AFCF778FEBFF35F8F42
:1037500004980799C860FFE708B080BD80B582B0C3
:103760008DF8070000919DF80700022853D1FFE76C
:1037700000984178014446F22730C0F60000FCF77B
:10378000A3FE38B9FFE746F2CD20C0F60000FCF7F3
:10379000EDFD3FE000984178014446F22930C0F643
:1037A0000000FCF791FE38B9FFE746F2AA20C0F608
:1037B0000000FCF7DBFD2CE000984178014446F264
:1037C000C010C0F60000FCF77FFE38B9FFE746F2F4
:1037D0006F20C0F60000FCF7C9FD19E000984178A1
:1037E000014446F22B30C0F60000FCF76DFE38B9FC
:1037F000FFE746F29020C0F60000FCF7B7FD06E0B8
:1038000046F2F710C0F60000FCF7B0FDFFE7FFE757
:10381000FFE7FFE706E046F20B20C0F60000FCF7EA
:10382000A5FDFFE702B080BD80B582B08DF807002E
:1038300000919DF8070001280AD1FFE740F2B4701B
:10384000C2F200004FF4FA7100F00AFC00F0C6F872
:1038500046F2EF20C0F60000FCF788FDFFE702B05B
:1038600080BD000080B582B08DF8070000919DF802
:103870000700012801D1FFE706E046F23920C0F633
:103880000000FCF773FDFFE702B080BD80B582B099
:103890008DF8070000919DF80700012801D1FFE78E
:1038A00006E046F2FE20C0F60000FCF75FFDFFE7F1
:1038B00002B080BD80B584B08DF80F000291002069
:1038C0000190FFE701989DF80F1088420FD2FFE7A3
:1038D00001990298425C024446F24820C0F600007A
:1038E000FCF744FDFFE7019801300190EAE79DF8FD
:1038F0000F00032805D1FFE70020802100F074FEAF
:1039000012E046F21E20C0F60000FCF72FFD46F242
:103910005720C0F60000FCF729FD46F20E30C0F635
:103920000000FCF723FDFFE704B080BD80B540F246
:10393000AC70C2F2000000F095F880BD80B500F0D8
:10394000F9FF80BD80B582B0009000980138B0F1D9
:10395000807F03D3FFE70120019019E00098013830
:103960004EF21401CEF2000108604FF0FF300F213B
:1039700000F012F84EF21801CEF2000100200860AB
:103980004EF21002CEF20002072111600190FFE713
:10399000019802B080BD000082B08DF80700009150
:1039A0009DF9070000280AD4FFE7009800019DF95F
:1039B00007104EF20042CEF2000288540BE000984D
:1039C00000019DF8071001F00F014EF61452CEF2DF
:1039D00000028854FFE702B070470000BFF34F8F2A
:1039E0004EF60C51CEF20001086800F4E0600422AB
:1039F000C0F2FA5210430860BFF34F8FFFE700BFD9
:103A0000FDE7000080B582B001900198009044F677
:103A10005000C2F200004FF4FA6100F0E5FA00999C
:103A2000487808700020487002B080BD81B00090D6
:103A300000994878087001B07047000080B582B0E6
:103A40000190FFE746F2D311C0F600010020FEF717
:103A50000BFFFFE746F2D310C0F60000FCF786FC30
:103A600002B080BD80B584B00390039801900078C7
:103A700001460291032814D80299DFE801F0020AF6
:103A8000060E019800F014F80FE00198FFF7CEFF42
:103A90000BE00198FFF7B6FF07E00198FFF7CEFFB4
:103AA00003E00198FFF7CAFFFFE704B080BD000004
:103AB00080B584B00390039800900020ADF80A0010
:103AC00040F29830C2F20000006801900B2843D801
:103AD0000199DFE801F0060A0F14191E23282D3280
:103AE000373CA220ADF80A003BE04FF40770ADF878
:103AF0000A0036E040F25640ADF80A0031E040F2EC
:103B00007260ADF80A002CE040F68E00ADF80A00B5
:103B100027E040F6C820ADF80A0022E040F60C503D
:103B2000ADF80A001DE04FF46160ADF80A0018E03E
:103B300040F60C50ADF80A0013E04FF46160ADF8A8
:103B40000A000EE040F60C50ADF80A0009E04FF410
:103B50006160ADF80A0004E04FF46160ADF80A005E
:103B6000FFE740F29830C2F200000068002812D44B
:103B7000FFE740F29830C2F2000000680B280ADC30
:103B8000FFE7BDF80A1040F64400C2F2000008301A
:103B900000F0C0F8FFE7FFE740F29830C2F2000003
:103BA000026846F2DE11C0F600010020FEF75CFE5E
:103BB000FFE740F29830C2F2000001680131016075
:103BC00000680C2801D1FFE7FFE700990120087089
:103BD0000220487004B080BD81B0009000980021A0
:103BE0000170417001B0704781B00090009801B041
:103BF0007047000080B588B0079001A8FEF780FCF0
:103C0000FFE7019A46F25311C0F600010020FEF7CB
:103C10002BFEFFE7FFE7029A46F24811C0F60001CB
:103C20000020FEF721FEFFE7FFE7039A46F22C1182
:103C3000C0F600010020FEF717FEFFE7FFE7049A39
:103C400046F23811C0F600010020FEF70DFEFFE736
:103C5000FFE7069A46F24411C0F600010020FEF785
:103C600003FEFFE708B080BD80B584B003900398E1
:103C70000290082001210191FEF726FC01991020F5
:103C8000FEF722FC01994FF48020FEF701FC019918
:103C90000846FEF719FC01994FF48050FEF7DCFB53
:103CA00001994FF40050FEF7D7FB01994FF00050F7
:103CB000FEF7EEFB01990846FEF7CEFB4FF4A0603D
:103CC000FEF7B4FB01994FF40060FEF7FDFB01998C
:103CD0000420FEF7F9FB01990846FEF7D9FB01998C
:103CE0000220FEF7D5FB00200721FEF7E3F84FF492
:103CF00000304FF46051FEF739FB0298FFF77AFF6E
:103D0000029804B080BD000081B00090009801B01E
:103D10007047000080B584B00390ADF80A10BDF87C
:103D20000A1000200190FEF72FF901980121FEF7FB
:103D300041F904B080BD000080B582B001900198C7
:103D4000009040F60001C4F20101102200F01EF8BC
:103D5000009800F007F80098A221FFF7DBFF02B0FF
:103D600080BD000080B586B005903C200190002009
:103D70000090029003900221049101A9FEF7DAF865
:103D800000980121FEF7B4F806B080BD80B584B07C
:103D90000390029101920198ADF8000000208DF887
:103DA000030002986946FEF72BF904B080BD0000BD
:103DB00080B582B0019001980090FFF7BDFF009898
:103DC00002B080BD81B00090009801B07047000043
:103DD00080B582B00190019A69460020086046F2E1
:103DE000B611C0F6000101204FF48043FEF76AFCD3
:103DF000FEF7B8FCFFE746F29411C0F6000146F268
:103E0000CB12C0F6000246F23D53C0F6000300207C
:103E1000FEF72AFDFFE7FFE746F27D11C0F600013D
:103E200046F2AA12C0F6000246F2C213C0F6000320
:103E30000020FEF719FDFFE7FFE746F26011C0F62C
:103E400000010020FEF710FDFFE702B080BD00007A
:103E500080B582B0019001980090FFF7B9FF0098FB
:103E600002B080BD81B00090009801B070470000A2
:103E700080B588B007900691069802900020ADF8B2
:103E80000C00ADF80E00ADF81000ADF814000C20D9
:103E9000ADF8120044F60000C4F20000009002A940
:103EA000FFF788F8009840F2255101220192FEF7B1
:103EB000A7FF00980199FEF7EDFF08B080BD000054
:103EC00080B586B005904FF48060ADF810000320F7
:103ED00001908DF8120018208DF8130040F6004074
:103EE000C4F20100029004A90391FEF789F8019A37
:103EF000029803994FF40063ADF810308DF812204A
:103F000004228DF81320FEF77BF806B080BD000078
:103F100080B582B001904FF4E060FEF719FA2720D7
:103F20008DF8000000208DF8020001208DF80300BC
:103F30006846FEF7B7F902B080BD000080B582B0D8
:103F4000019001980090FFF7BBFF00984FF4E1311A
:103F5000FFF78EFF0098FFF7DBFF009802B080BDEF
:103F600081B00090009801B07047000080B582B029
:103F7000019040F2BC70C2F2000000F0B7FA40F2CB
:103F80001000C2F2000000F07BF902B080BD00001A
:103F900080B582B0019001980090FFF7E7FF00988C
:103FA00002B080BD81B00090009801B07047000061
:103FB00080B582B0019040F20C00C2F200000068AF
:103FC00044F6D351C1F26201A0FB01108009FFF752
:103FD000B9FC10B1FFE7FFE7FEE74FF0FF3000212B
:103FE000FFF7DAFC02B080BD82B00190009100982A
:103FF00040F2B071C2F200010860FFE740F2B07019
:10400000C2F20000006808B1FFE7F7E702B07047AE
:1040100080B582B0019001980090FFF7C9FF009829
:1040200002B080BD81B00090009801B070470000E0
:1040300082B00190009101994EF6FC52CEF200023E
:10404000106840F08070106041F20002CEF2000271
:10405000106840F0010010600098086002B07047DE
:1040600080B582B001900091019800994FF47A7266
:10407000514300F003F802B080BD000085B0049009
:104080000391049941F20400CEF20000006802900E
:10409000039809684DF68362C4F21B32A1FB02212A
:1040A000890C4843009002980099084401900198B7
:1040B000029988420CDDFFE7FFE741F20400CEF2EF
:1040C000000000680199884201D2FFE7F5E716E099
:1040D000FFE741F20400CEF2000000680199884237
:1040E00001D3FFE7F5E7FFE741F20400CEF200005D
:1040F00000680199884201D2FFE7F5E7FFE705B0C4
:104100007047000080B588B007900798009001A81C
:10411000FEF7F6F900980199FFF78AFF009808B0BA
:1041200080BD000081B00090009801B07047000091
:1041300080B582B0019001980090FFF795FD00983E
:104140000430FFF7FBFE00980830FFF731FE0098BF
:1041500002B080BD80B582B0019001980090083017
:10416000FFF730FE00980430FFF7FAFE0098FFF7E3
:10417000CBFD009802B080BD80B582B040F6500003
:10418000C2F200000190FFF763FE019943F66560FB
:10419000C0F6000040F20002C0F60002FCF7F4F89E
:1041A00002B080BD80B582B040F64400C2F200008B
:1041B0000190FFF7BDFF019944F25510C0F60000D1
:1041C00040F20002C0F60002FCF7DEF802B080BD4B
:1041D00080B582B040F2B870C2F200000190FFF7E3
:1041E000D7FE019943F6A570C0F6000040F2000228
:1041F000C0F60002FCF7C8F802B080BD80B582B0FE
:1042000040F2AC70C2F200000190FFF7E5FC0199AA
:1042100043F6E930C0F6000040F20002C0F60002AA
:10422000FCF7B2F802B080BD80B582B040F2B47045
:10423000C2F200000190FFF765FF019944F22510DA
:10424000C0F6000040F20002C0F60002FCF79CF845
:1042500002B080BD80B582B044F65000C2F20000CA
:104260000190FFF7D5FE019944F22500C0F6000049
:1042700040F20002C0F60002FCF786F802B080BDF2
:1042800080B582B0019046F24250C0F60000FCF7C3
:104290006DF846F29530C0F60000FCF767F846F27C
:1042A0003840C0F60000FCF761F846F28C40C0F6DA
:1042B0000000FCF75BF846F2B640C0F60000FCF7E1
:1042C00055F846F26240C0F60000FCF74FF846F29F
:1042D000E040C0F60000FCF749F846F23B50C0F65B
:1042E0000000FCF743F846F21350C0F60000FCF75C
:1042F0003DF846F2DB30C0F60000FCF737F846F236
:10430000F030C0F60000FCF731F846F20940C0F684
:10431000000046F2CB11C0F6000146F23D52C0F655
:104320000002FCF723F8019946F29230C0F6000033
:10433000FCF71CF80198243000F0D8FF01982430D5
:1043400046F20C51C0F6000100F018FF019901205F
:10435000488502B080BD000081B000900099002027
:104360004860009A4FF6FF71118000994A68114425
:10437000087201B07047000080B584B08DF80F005E
:1043800002914FF0FF3001909DF80F007F2804D17B
:10439000FFE708208DF80F00FFE7029890F88100F2
:1043A000002841D1FFE79DF80F0046F23401C0F626
:1043B000000100F0B1F801900198002814D4FFE743
:1043C000019946F23C00C0F6000050F8210050B1BF
:1043D000FFE7019946F23C00C0F6000050F82110BA
:1043E00002988847FFE71EE09DF80F001B2813D1B5
:1043F000FFE70299022081F881009DF80F000299E1
:1044000091F88020114481F86C00029991F88000A5
:10441000013081F8800005E002989DF80F1000F04F
:104420008BFAFFE7FFE75DE0029890F88100022831
:1044300052D1FFE79DF80F00029991F880201144B6
:1044400081F86C009DF80F00612805DBFFE79DF8FF
:104450000F007B280FDBFFE79DF80F00412805DBED
:10446000FFE79DF80F005B2805DBFFE79DF80F00D5
:104470007E281AD1FFE79DF80F0045F6CC71C0F6F3
:10448000000100F049F80190019945F6E470C0F68A
:10449000000050F82110029888470299002081F806
:1044A0008000029981F8810015E0029890F8800060
:1044B000132808DBFFE70299002081F880000299A9
:1044C00081F8810006E0029991F88000013081F8BE
:1044D0008000FFE7FFE704E00299002081F88100F7
:1044E000FFE7FFE79DF80F0004B080BD81B00090AA
:1044F000009900204860009A4FF6FF7111800099E2
:104500004A6811440872009981F88000009981F886
:10451000810001B07047000085B08DF80F00029156
:1045200000200190FFE702980199415C9DF80F205F
:1045300000209142009008D0FFE702980199405C6A
:10454000002818BF01200090FFE70098C00728B19D
:10455000FFE7FFE7019801300190E4E70298019935
:10456000405C18B1FFE70198049003E04FF0FF3082
:104570000490FFE7049805B07047000080B584B050
:104580000390029100200190FFE701980299884270
:104590000ED2FFE703980199405C40F2A411C2F2E9
:1045A0000001FBF7EFFEFFE7019801300190ECE717
:1045B00004B080BD80B582B0019000919DF80410D8
:1045C00044F60000C4F20000FEF78EFDFFE744F65B
:1045D0000000C4F200008021FEF772FC08B9FFE77A
:1045E000F5E7019802B080BD80B5A0B01E901D9186
:1045F000FFE71E9B1D986946086046F22D31C0F604
:10460000000146F26C32C0F600020020FEF72CF9E1
:10461000FFE71E9A1D9B46F22D30C0F6000046F2C1
:104620006C31C0F60001FBF7A1FE1D98012805DBE7
:10463000FFE71D98B0F5807F04DDFFE74FF0FF3006
:104640001F906AE146F25B30C0F600001C9000202B
:104650001B908DF86B001B90FFE71B981D99CA17E4
:1046600001EB127121F00F01884280F29D80FFE77B
:1046700000200990FFE709980F286EDCFFE71E98DD
:104680001B99099A1144405C8DF86B00099800EB66
:10469000400008901C989DF86B100909405C089A2E
:1046A000511C08910DF1290188541C989DF86B202C
:1046B00002F00F02805C089A531C089388540999F1
:1046C0000020092902900DDCFFE709980130C1178D
:1046D00000EB517121F00701401AB0FA80F0400957
:1046E0000290FFE70298C1072020002918BF092087
:1046F000089A511C08910DF1290188549DF86B000E
:10470000202818DBFFE79DF86B00A0B1FFE79DF8BC
:104710006B0009280FD0FFE79DF86B000D280AD029
:10472000FFE79DF86B000A2805D0FFE79DF86B00B6
:10473000082806D1FFE7099A0DF15A012E20885466
:1047400006E09DF86B00099A0DF15A018854FFE7C5
:10475000FFE70998013009908DE700208DF8590096
:10476000099A0DF15A018854FFE71B9A69460DF129
:104770005A00086046F24E31C0F6000100200DF1EB
:104780002903FEF771F8FFE71B9946F24030C0F6A7
:1047900000000DF129020DF15A03FBF7E7FDFFE7D9
:1047A0001B9810301B9058E71D98C11700EB117132
:1047B00021F00F01401A07900798002803DCFFE75B
:1047C00000201F90A9E0002006901B980590FFE7AD
:1047D0001B981D99884255DAFFE71E981B99405C8B
:1047E0008DF86B00069800EB400004901C989DF833
:1047F0006B100909405C049A511C04910DF12901C8
:1048000088541C989DF86B2002F00F02805C049A7B
:10481000531C04938854049A501C049020208854FC
:104820009DF86B00202818DBFFE79DF86B00A0B116
:10483000FFE79DF86B0009280FD0FFE79DF86B009C
:104840000D280AD0FFE79DF86B000A2805D0FFE786
:104850009DF86B00082806D1FFE7069A0DF15A0172
:104860002E20885406E09DF86B00069A0DF15A013F
:104870008854FFE7069801300690FFE71B98013047
:104880001B90A5E7079800EB40020DF129010020DD
:104890008854069A0DF15A01885407980690FFE74C
:1048A00006980F2818DCFFE7069800EB40000390FD
:1048B000039A501C03900DF1290120208854039A7B
:1048C000531C03938854039A531C03938854FFE7A3
:1048D000069801300690E3E700208DF85900FFE7C5
:1048E000059A69460DF15A00086046F24E31C0F64D
:1048F000000100200DF12903FDF7B6FFFFE7059940
:1049000046F24030C0F600000DF129020DF15A03C5
:10491000FBF72CFD00201F90FFE71F9820B080BD03
:1049200080B582B000200190FFF708F8FFE7FEF79E
:10493000FDFFFCE77047000080B584B003908DF860
:104940000B1003984068612849D8FFE70399B1F933
:1049500000004968884216D2FFE70398406801903A
:10496000FFE701980399B1F9001088420AD9FFE7DF
:10497000039801990144C8790872FFE7019801384A
:104980000190EEE7FFE7039908880130088003995A
:104990004868013048609DF80B000399B1F9002088
:1049A0001144087203984168014400200872039979
:1049B000B1F9000001304968884207D2FFE746F2AA
:1049C0007430C0F60000FBF7D1FCFFE79DF80B0048
:1049D00040F2A411C2F20001FBF7D4FC14E00399E9
:1049E000612048600399B1F900004968884205D305
:1049F000FFE70399486801380880FFE7039841689A
:104A0000014400200872FFE704B080BD80B582B089
:104A1000019000200090FFE70098019991F8801024
:104A2000884210D2FFE701980099084490F86C0082
:104A300040F2A411C2F20001FBF7A4FCFFE70098CA
:104A400001300090E8E702B080BD000080B582B080
:104A50000190019890F86E0033282BD1FFE7019860
:104A6000B0F9000001300090FFE700980199496813
:104A700088420AD2FFE7019800990144487A0872F7
:104A8000FFE7009801300090EFE70198B0F90010BF
:104A9000B0F9040088420CDDFFE70199486801384D
:104AA000486046F28D30C0F600000421FFF766FD35
:104AB000FFE7FFE702B080BD80B582B001900198AA
:104AC000B0F9000000282BD4FFE70198B0F90000EE
:104AD0000090FFE700980199496888420AD2FFE7F1
:104AE000019800990144487A0872FFE70098013064
:104AF0000090EFE70199088801380880019948681B
:104B00000138486040F2A411C2F200010820FBF70E
:104B100039FC46F28D30C0F60000FBF727FCFFE7BA
:104B200002B080BD80B584B0039040F21000C2F2A4
:104B30000000408D012845DBFFE70398B0F9000035
:104B4000411C46F28330C0F60000FBF70FFC46F232
:104B50008930C0F60000FBF709FC40F21000C2F2F9
:104B600000000290418D2430039A083200F04AFA86
:104B700003980830FBF743FC0399486003994868A1
:104B800001380880039901F108004968FFF7F6FC35
:104B90000299488D01304885488D098D884203DD92
:104BA000FFE70120019006E040F21000C2F2000091
:104BB000408D0190FFE7019840F21001C2F2000120
:104BC0004885FFE704B080BD80B582B001900199AF
:104BD0004FF6FF70088001990020486040F21001F4
:104BE000C2F20001088D488540F2A411C2F2000112
:104BF00000910D20FBF7C6FB00990A20FBF7C2FBD2
:104C000002B080BD80B582B001900198B0F900007B
:104C100000280BD4FFE7019908880138088046F284
:104C20007E30C0F60000FBF7A1FBFFE702B080BDBD
:104C300080B582B0019001994FF6FF70088001990C
:104C40000020486040F21001C2F20001088D488542
:104C500040F2A411C2F200010A20FBF793FB02B05C
:104C600080BD000080B582B001900199B1F90000CB
:104C70004968013988420BDAFFE701990888013059
:104C8000088046F27930C0F60000FBF76FFBFFE7C3
:104C900002B080BD80B584B00390039800F1080194
:104CA00040F21000C2F2000000F04EF901900198AD
:104CB00000286CD0FFE703984068002841D1FFE747
:104CC00046F20750C0F60000FBF750FB00208DF8BD
:104CD0000B00FFE740F21000C2F20000006A9DF8EE
:104CE0000B1001EB810100EB8100C068F0B1FFE720
:104CF00040F21000C2F20000006A9DF80B1001EBB8
:104D0000810100EB810146F29230C0F60000FBF712
:104D10002DFB46F20750C0F60000FBF727FBFFE72C
:104D20009DF80B0001308DF80B00D3E746F292306E
:104D3000C0F6000040F21001C2F20001FBF716FBC2
:104D400024E00398B0F90000411C46F28330C0F61D
:104D50000000FBF70BFB46F28930C0F60000FBF7C2
:104D600005FB0198FBF74BFB0399486003994868E2
:104D700001380880039808300199FBF71CFB039960
:104D800001F108004968FFF7F9FBFFE7FFE704B00E
:104D900080BD000080B584B0039040F21000C2F2E4
:104DA0000000408D012847DBFFE70398B0F90000C1
:104DB000411C46F28330C0F60000FBF7D7FA46F2FA
:104DC0008930C0F60000FBF7D1FA40F21000C2F2C1
:104DD00000000290418D2430039A083200F012F94D
:104DE00003980830FBF70BFB039948600399486868
:104DF00001380880039901F108004968FFF7BEFBFC
:104E00000298418D01394185408D38B9FFE740F264
:104E10001000C2F20000008D019006E040F2100088
:104E2000C2F20000408D0190FFE7019840F21001AE
:104E3000C2F200014885FFE704B080BD8FB00D903D
:104E40000C910C980A9000200190FFE701981F2810
:104E500009DCFFE7019A02A900208854FFE70198C6
:104E600001300190F2E7FFE70A98007800F00702AE
:104E7000012101FA02F3C20802A9885C1843885490
:104E8000FFE70A98411C0A9100780028ECD1FFE75F
:104E90000D9818B1FFE70D980B9006E040F6400022
:104EA000C2F2000000680B90FFE7FFE70B98007864
:104EB000C20802A9895C00F007020020D140C9079E
:104EC000009039B1FFE70B980078002818BF012047
:104ED0000090FFE70098C00720B1FFE70B98013072
:104EE0000B90E3E70B980D90FFE70B980078B0B1BB
:104EF000FFE70B980178CA0802A8805C01F007015F
:104F0000C840C00730B1FFE70B99481C0B90002048
:104F1000087004E0FFE70B9801300B90E5E70B9871
:104F200040F64001C2F2000108600D980B998842DA
:104F300003D1FFE700200E9002E00D980E90FFE7EE
:104F40000E980FB07047000080B586B005900491B0
:104F5000002003900190FF218DF803108DF80B00C5
:104F6000FFE70598006A9DF80B1001EB810110F82E
:104F70002100002842D0FFE7002003900598006A36
:104F80009DF80B1001EB810100EB81000499FBF708
:104F900000FA0390039850B3FFE703980599096A54
:104FA0009DF80B2002EB820201EB8201401A9DF872
:104FB000031088421BD2FFE703980599096A9DF800
:104FC0000B2002EB820201EB8201401A8DF80300F4
:104FD0000598006A9DF80B1001EB810100EB810040
:104FE00001909DF8030008B9FFE707E0FFE7FFE73E
:104FF0009DF80B0001308DF80B00B2E7019806B068
:1050000080BD000087B00690ADF816100492BDF880
:10501000160006998988884200F3AE80FFE706985B
:105020000088BDF8161008440138ADF80E00BDF830
:105030000E000B2805DBFFE7BDF80E000B380190D2
:1050400003E0BDF80E000190FFE70198ADF80E00F7
:105050000698BDF80E100844807BADF80C00BDF832
:105060000E000130ADF80E00BDF80E000B2803DB7A
:10507000FFE70020009003E0BDF80E000090FFE77E
:105080000098ADF80E000698BDF80E100844807B1D
:10509000ADF80A00BDF80C00BDF80A10884226DA07
:1050A000FFE7BDF80C00ADF80800FFE7BDF8080009
:1050B000BDF80A10884211DAFFE70698BDF808200B
:1050C0001044407E0499BDF80C30D21A8854FFE792
:1050D000BDF808000130ADF80800E7E70499BDF815
:1050E0000800BDF80C20821A0020885443E0BDF867
:1050F0000C00ADF80800FFE7BDF80800FD2811DC42
:10510000FFE70698BDF808201044407E0499BDF8DA
:105110000C30D21A8854FFE7BDF808000130ADF812
:105120000800E9E70020ADF80800FFE7BDF8080037
:10513000BDF80A10884213DAFFE70698BDF8081098
:105140000844407E049ABDF80C30C91A114481F815
:10515000FE00FFE7BDF808000130ADF80800E5E704
:105160000499BDF80800BDF80C20801A0144002005
:1051700081F8FE00FFE7FFE707B0704780B588B011
:10518000079006910698FBF73AF9ADF81600BDF8BE
:105190001600FE2801DBFFE7A5E0FFE7BDF81610CB
:1051A00007988089C0F1FD0201209142049008DC3B
:1051B000FFE7079880880A38B0FA80F04009049029
:1051C000FFE70498C007D8B3FFE7079908880130C4
:1051D0000880079800880B2803DBFFE70020039076
:1051E00003E0079800880390FFE703980799088079
:1051F0000799888801388880079908890A881144A6
:10520000897B88420ADCFFE7079908880844837B8A
:105210000A898889D21A104488810BE00799088886
:105220000844807B0A89801AFD308A89C043104473
:105230008881FFE7079908880844807B0881ADE7EB
:105240000799887A4A8811448873079948880130F9
:105250004880079840880B2803DBFFE70020029076
:1052600003E0079840880290FFE70298079948807A
:1052700007998888013088800020ADF81400FFE786
:10528000BDF81400BDF81610884226DAFFE706982C
:10529000BDF81410405C07994A8911444876079973
:1052A00048890130488107984089FE2803DBFFE7E1
:1052B0000020019003E0079840890190FFE70198E2
:1052C000079948810799888901308881FFE7BDF8EF
:1052D00014000130ADF81400D2E70799887A4A88A3
:1052E00011448873FFE708B080BD000081B00090D2
:1052F00000990020088000994880009988800099D2
:105300000881009948810099888101B070470000A8
:1053100080B58AB00890079108980088ADF814000D
:105320000020ADF80C000898808828B9FFE7BDF888
:105330000C00ADF82600A5E00798FBF760F8ADF883
:105340001A000020ADF81800FFE7BDF81800089912
:105350008988884280F29280FFE70898BDF814108F
:105360000844807BADF81200BDF814000130ADF8A0
:105370001400BDF814000B2803DBFFE700200190A8
:1053800003E0BDF814000190FFE70198ADF81400A8
:105390000898BDF814100844807BADF81000BDF8E3
:1053A0001200BDF81010884208DCFFE7BDF81000BD
:1053B000BDF81210401AADF80E0008E0BDF812104A
:1053C000BDF81000401AFE30ADF80E00FFE7BDF842
:1053D0000E00BDF81A10884249D1FFE7BDF8180049
:1053E0000130ADF80C00BDF81200ADF80A00002045
:1053F000ADF81600FFE7BDF81600BDF81A10884298
:105400002BDAFFE70898BDF80A100844407E079998
:10541000BDF81620895C884204D0FFE70020ADF873
:105420000C001AE0BDF80A000130ADF80A00BDF822
:105430000A00FE2803DBFFE70020009003E0BDF830
:105440000A000090FFE70098ADF80A00FFE7BDF8FA
:1054500016000130ADF81600CDE7BDF80C0028B1FC
:10546000FFE7BDF80C00ADF826000BE0FFE7FFE713
:10547000BDF818000130ADF8180066E70020ADF85F
:105480002600FFE7BDF826000AB080BD80B5A2B0B7
:105490002190209100208DF87F00209803900A2011
:1054A0008DF80700219824302099FFF731FF50B97B
:1054B000FFE72098007830B1FFE721982430209949
:1054C000FFF75CFEFFE72098FAF799FF65280ED3F7
:1054D000FFE746F2BF30C0F60000FAF747FF219918
:1054E00046F29230C0F60000FAF740FF80E00398E1
:1054F00046F20A51C0F60001FFF7A0FC0390219884
:10550000209900F077F80290029898B9FFE7FAF72F
:1055100025FF006820990978405C10F0980F08D0AA
:10552000FFE7039946F22140C0F60000FAF71EFF9C
:10553000FFE74BE09DF807109DF87F200DF111006B
:1055400081549DF8071008442099FAF734FF2098F9
:10555000FAF755FF9DF80710084401308DF8070051
:105560009DF87F0001308DF87F0046F20A51C0F6A9
:1055700000010020FFF762FC0390FFE7039820B3CF
:10558000FFE79DF807109DF87F200DF11100815471
:105590009DF8071008440399FAF70DFF0398FAF7EE
:1055A0002EFF9DF80710084401308DF807009DF884
:1055B0007F0001308DF87F0046F20A51C0F60001ED
:1055C0000020FFF73BFC0390D8E7FFE7029838B1D3
:1055D000FFE7029A9DF87F000DF111019047FFE768
:1055E000219946F29230C0F60000FAF7BFFEFFE7BD
:1055F00022B080BD80B584B002900191002000905F
:10560000FFE70298006A009901EB810100EB81003D
:10561000C068D0B1FFE701980299096A009A02EBCD
:10562000820201EB8201FAF74FFF50B9FFE70298BF
:10563000006A009901EB810100EB8100C0680390D2
:1056400006E0009801300090DBE700200390FFE7C0
:10565000039804B080BD5FEA400C08BF91F0000FD2
:105660004FEA8C234FEAC12243EA51514FEA1C50C2
:1056700018BF00F5F0404FEA300018BF41F000417C
:105680005FEA6C5C00F02980BCF1FF3F08BF40F08E
:1056900080407047130C06BF12044FF0100C4FF0FF
:1056A000000C130E04BF12020CF1080C130F04BF00
:1056B00012010CF1040C930F04BF92000CF1020CC8
:1056C000D30F04BF52000CF1010C11464FF0000241
:1056D000A0F11F00A0EB0C00704711F0004F08BFB5
:1056E000704731F000413FF4D5AF0B0C06BF090401
:1056F0004FF0100C4FF0000C0B0E04BF09020CF120
:10570000080C0B0F04BF09010CF1040C8B0F04BF34
:1057100089000CF1020CCB0F04BF49000CF1010C05
:10572000CCF1200322FA03F341EA030102FA0CF25E
:10573000A0EB0C0000F101007047000023F07F4750
:1057400020F07F4C80EA030000F00040ACEB070340
:1057500003F57C5303F1FF032DE9804909B44FEAB7
:10576000144324EA03484FEA154B25EA0B4E0FF287
:10577000042606EB13273E7803FB0667C7F50007F0
:1057800007FB06F64FEAD64606F102064FEA543703
:1057900007FB066CCCF1005C4FEA1C472CEA074C77
:1057A0000CFB06F507FB06F404EB15464FEA9616CC
:1057B00049085FEA320234BF00204FF000404FEA50
:1057C000D13706FB07FC4FEA1C4C0CFB0BF7D21B36
:1057D00003FB0CF761EB07010CFB0EF7B0EB074086
:1057E00072EB17420CFB08F734BFA2EB0742B2EB97
:1057F000074261EB17414FEA0C444FEA910706FB61
:1058000007FC4FEA1C4C0CFB0BF7B0EBC74072EBEC
:10581000573203FB0CF734BFA2EBC742B2EBC742CF
:1058200061EB57310CFB0EF7B0EBC70072EB577210
:105830000CFB08F734BFA2EBC702B2EBC70261EB67
:1058400057714FEA816141EA92114FEA826242EA5E
:1058500090124FEA806004EBCC04039F4FEAD137EB
:1058600006FB07FC4FEA1C4C0CFB0BF7D21B03FB9F
:105870000CF761EB07010CFB0EF7B0EB074072EB86
:1058800017420CFB08F734BFA2EB0742B2EB07420A
:1058900061EB17414FEA8C5504EB9C244FEA9107CA
:1058A00006FB07FC4FEA1C4C0CFB0BF7B0EBC740A8
:1058B00072EB573203FB0CF734BFA2EBC742B2EBDB
:1058C000C74261EB57310CFB0EF7B0EBC70072EB30
:1058D00057720CFB08F734BFA2EBC702B2EBC7024A
:1058E00061EB57714FEA816141EA92114FEA82629E
:1058F00042EA90124FEA806015EB4C2544F1000417
:105900004FEAD13706FB07FC4FEA1C4C0CFB0BF7A8
:10591000D21B03FB0CF761EB07010CFB0EF7B0EB9E
:10592000074072EB17420CFB08F734BFA2EB0742AB
:10593000B2EB074261EB17414FEA813141EA9241F4
:105940004FEA823242EA90424FEA80304FEA0C76C8
:1059500015EB1C1544F1000448EA03434EEA0B48DA
:105960004FF0000EB2EB080C71EB030724BF624648
:1059700039464EEB0E0E4FF0000B001852414941D4
:105980004BEB0B0BB2EB080C71EB03077BF1000B3D
:1059900024BF624639464EEB0E0E4FF0000B001846
:1059A000524149414BEB0B0BB2EB080C71EB030777
:1059B0007BF1000B24BF624639464EEB0E0E51EAD6
:1059C000020718BF46F0010616EB0E7655F10002ED
:1059D00054F1000103D5BDE88901BDE80088BDE8A8
:1059E0008901BDE80048B619524141EB0101A3F11C
:1059F0000103704780807F7E7D7C7B7A7978777623
:105A000076757473727171706F6E6E6D6C6C6B6A9B
:105A10006A69686867666665646463636261616039
:105A2000605F5F5E5E5D5D5C5C5B5B5A5A595958B6
:105A30005857575656555555545453535252525120
:105A4000515050504F4F4F4E4E4D4D4D4C4C4C4B76
:105A50004B4B4A4A4A4949494848484747474746BD
:105A600046464545454444444443434343424242F9
:105A7000424141419C46002B30D477002BD04FEA65
:105A800037071CB503B44FF010004FF01001BAF106
:105A9000000F06D0BCF1000FDCBF40F0080040F062
:105AA00008014FF000000FBCBDE810400BF1010BE6
:105AB000BBF1010F08BF5FEA170722BF12F1010215
:105AC00011F101014FF0004143F1000300F00040EB
:105AD00043EA00007047F9D35708D0E746EA064684
