:020000040800F2
:10000000485B00202903000855280008CD7100082E
:1000100051280008D5230008CD3700080000000053
:100020000000000000000000000000009D320008F9
:10003000D9230008000000003F03000861330008D6
:100040004303000843030008430300084303000878
:100050004303000843030008430300084303000868
:100060004303000843030008430300084303000858
:100070004303000843030008430300084303000848
:100080004303000843030008430300084303000838
:10009000430300084303000843030008DD2300086E
:1000A0004303000843030008430300084D340008DD
:1000B0004303000843030008430300084303000808
:1000C00043030008430300084303000843030008F8
:1000D000BD30000843030008430300085134000802
:1000E00043030008430300084303000843030008D8
:1000F00043030008430300084303000843030008C8
:1001000043030008430300084303000843030008B7
:1001100043030008430300084303000843030008A7
:100120004303000843030008430300084303000897
:100130004303000843030008430300084303000887
:100140004303000843030008430300084303000877
:100150004303000843030008430300084303000867
:100160004303000843030008430300084303000857
:100170004303000843030008430300084303000847
:100180004303000843030008430300084303000837
:10019000430300084303000800F002F800F0B4F83D
:1001A0000AA090E8000C82448344AAF10107DA45D2
:1001B00001D100F0A9F8AFF2090EBAE80F0013F070
:1001C000010F18BFFB1A43F001031847B08300006A
:1001D000D08300000A4410F8014B14F00F0508BF4B
:1001E00010F8015B240908BF10F8014B6D1E05D003
:1001F00010F8013B6D1E01F8013BF9D1641E03D0DC
:10020000641E01F8015BFBD19142E4D3704700000A
:100210000023002400250026103A28BF78C1FBD80F
:10022000520728BF30C148BF0B6070476E2900F0ED
:100230006F84702900F0A585662907F0DE856529A1
:1002400007F0DB85672907F0D885612907F0D78596
:1002500003681B0A28BF41F08001692900F01C8453
:10026000642900F01984752900F016846F2900F0C4
:100270003385782900F07185E92900F0CD84E429DF
:1002800000F0CA84F52900F0C784EF2900F030851A
:10029000F82900F070850368DB0928BF41F0800170
:1002A000632901F05A85732901F05F85E32901F084
:1002B0006A85F32901F06F85002070471FB507F0AC
:1002C0008AFD9DE8030001F005FF00F05DFB0400DE
:1002D0000020002106F0E0FF401C606000200021AB
:1002E00007F006F8E0600020002106F0EBFF206137
:1002F00000F00AFF00F034FB1FBD10B5002001F034
:1003000059FE00F06AFF10BD01F0A3FE1146FFF791
:10031000D5FF05F0A7FC01F0C5FF03B4FFF7EDFF23
:1003200003BC01F0E7FF0000094880470948004787
:10033000FEE7FEE7FEE7FEE7FEE7FEE7FEE7FEE795
:10034000FEE7FEE704480549054A064B70470000F2
:100350008133000899010008484A0020485B0020CA
:10036000484B0020484B002010B5044600211120C6
:10037000ABBE002C00D0206010BD000010B500F016
:1003800003FB001D10BD00BF116F00000FB4044936
:1003900010B503AA029800F0CFFB10BC5DF814FB67
:1003A000BC0100200FB4014610B504AA039800F068
:1003B000C3FB10BC5DF814FB0B460146184600F069
:1003C000BBBB000070B50446C068810713D080062F
:1003D00001D5A56A04E0A169606808442169451A4D
:1003E000204600F04DFE002206462946204600F039
:1003F00097FD304670BD002070BD70B510B1BDE8EE
:100400007040DFE70025074C6E1E07E02046FFF72F
:10041000D9FF00B13546206D20F00104002CF5D144
:10042000284670BD6801002005F0C6B90B4601469C
:10043000184600F005BF30B505460B462A4613F8AE
:10044000014B12F8010B08B1A042F8D01CB10028F2
:1004500002D06D1CF1E7284630BD40EA0103024698
:1004600030B59B0710D14FF0013400E008C208C935
:100470001D1B9D4315EAC41FF8D013F0FF0102F8BD
:10048000011B0DD01B0AF8E711F8013B002B02F805
:10049000013B05D011F8013B002B02F8013BF3D1E1
:1004A00030BD10B5431C02E010F8011B71B181078B
:1004B000FAD14FF0013202C88C1A8C4314EAC211EF
:1004C000F9D0C01A0A0603D0C01E10BDC01A10BD54
:1004D0000A0401D0801E10BD0902FCD0401E10BDD0
:1004E000032A40F2308010F0030C00F0158011F860
:1004F000013BBCF1020F624498BF11F801CB00F838
:10050000013B38BF11F8013BA2F1040298BF00F88B
:1005100001CB38BF00F8013B11F0030300F0A786C0
:10052000083AC0F0088051F8043B083A51F804CB6F
:10053000A0E80810F5E7121D5CBF51F8043B40F835
:10054000043BAFF30080D20724BF11F8013B11F840
:1005500001CB48BF11F8012B24BF00F8013B00F884
:1005600001CB48BF00F8012B7047000000000000DD
:1005700030B44FF0013C50F8042B51F8043BCCFA56
:1005800052F4D51A20D1FCB950F8042B51F8043B91
:10059000CCFA52F4D51A17D1B4B950F8042B51F84B
:1005A000043BCCFA52F4D51A0ED16CB950F8042B96
:1005B00051F8043BCCFA52F4D51A05D1002CDAD00C
:1005C00030BC4FF00000704729BAB1FA81F111F048
:1005D0001801D1F120008440F2D1CA40CB4012F082
:1005E000FF0213F0FF0330BCD01A7047014900F03E
:1005F00071BE00006402002070B5054601B90721F4
:10060000541A241DB4F5B67F09DD286800F05DF9A1
:10061000A04204DC2868401C2860012070BD002C2A
:1006200005DA2868401E286000F04FF904440720CE
:1006300094FBF0F0401C70BD2DE9F04F1F461546AD
:100640008B468246002689B000F09EF9D0F81080D3
:100650000024BBF1000F70D015F8010B10B1252854
:100660000DD10FE024B1641E06A850F82450F3E722
:10067000002130460AF8061009B0BDE8F08F0AF8EC
:100680000600C7E0E94615F8010B592870D023DCB5
:1006900049286ED014DC44286DD008DC2528EED023
:1006A00041283ED0422849D043282CD156E0452845
:1006B000E9D0462869D0472876D0482823D17AE067
:1006C0004D380C281FD2DFE800F0881E061E1E9B46
:1006D000A0A9B3B5C1CFD6E75A38212813D2DFE895
:1006E00000F0111212121212121A26374550125926
:1006F0002612741212797E128012891296A212B3F7
:10070000BDCB1100A8E725200AF80600761C5E453F
:1007100013D26D1EA0E7D8F80010BA69D8F82400EB
:1007200011E0D8F80410BA69D8F828000BE0D8F81E
:1007300008103A69D8F82C0005E0B2E0D8F80C109F
:100740003A69D8F8300002FB001101EB0809AAE071
:1007500006A840F82450D8F818108AE07969642077
:1007600091FBF0F21332484668A192E0FA6889E002
:100770008AE022E0FFE706A840F8245065A5641C43
:100780006AE7FA6866A1484683E006A840F8245064
:1007900064A5F4E7384600F0ADF8642190FBF1F26F
:1007A00001FB120258E0FFE7384600F0A3F80246CA
:1007B0005FA168466DE0BA6864E0B8680C210B3050
:1007C00090FBF1F201FB120205E0FA6959A14846DB
:1007D000521C5EE03A694DA1F9E77A6852E00A21BD
:1007E00016E0B8680C2802DAD8F81010ADE7D8F88F
:1007F0001410AAE706A840F82450D8F8341038E0BE
:1008000006A840F824504DA5B9E73A683AE0092116
:100810000AF80610761C5E45B2D342E006A840F8FE
:10082000245048A5ABE7BA6902B9072248A1AAE754
:1008300000210CE0786900F26C700890D7E906128C
:1008400008A8FFF7D9FE06E0BA69EFE70121D7E96A
:10085000062000F02EF802462CA1AAE706A840F8D0
:100860002450D8F81C1004E006A840F82450D8F80A
:10087000201001EB080582E77969642091FBF0F212
:1008800000FB121221A17EE77A69484628A102F2F4
:100890006C7200F089F806E00AF80600761C5E45E6
:1008A00001D30020E8E619F8010B00283FF4DFAE81
:1008B000F2E7511A00D5C91D401A01D50020704732
:1008C000072190FBF1F0401C704781070CD1642197
:1008D00090FBF1F201FB120151B94FF4C87190FB8A
:1008E000F1F201FB120018B1002000F26D10704708
:1008F0000120FAE708B5416901F26C710091D0E975
:1009000006126846FFF778FE009808BD252E32646F
:1009100000000000256D2F25642F257900000000C0
:100920002532640025592D256D2D25640000000019
:1009300025640000252E33640000000025483A2578
:100940004D00000025483A254D3A2553000000008F
:10095000252E31640000000070477047704700008A
:1009600070B5064C7C44064D7D4404E02046016889
:1009700008448047241DAC42F8D170BDE07E0000E1
:10098000E07E00007047000000487047B002002081
:1009900010B500F037FD006810BD10B5044600F03A
:1009A00031FD046010BD00000FB41CB5084B06AA51
:1009B0007B4469460090059801F0ADF9044600209B
:1009C000694601F0BBF920461CBC5DF814FB000031
:1009D0008913000070B5044685690068C10601D519
:1009E000302600E02026C00707D070BDD4E90121E1
:1009F00030469047206A401C20626D1EF6D570BDBF
:100A000070B5044685690078C00707D170BDD4E988
:100A1000012120209047206A401C20626D1EF6D5DF
:100A200070BD09684A0501D540B27047C905FCD5BB
:100A300000B2704709684A0501D5C0B27047C905C0
:100A4000FCD580B2704770B50C460546012A05D02A
:100A50002878800600D5EA69002302E0012305E03A
:100A60005B1C934202D2E05C0028F9D1A869E61829
:100A7000C01AA861286A184428622846FFF7AAFF0E
:100A800004E0D5E9012114F8010B9047B442F8D3F2
:100A90002846FFF7B5FF70BD2DE9F041064600245A
:100AA00010687529314616A510D0FFF7BAFF002847
:100AB00002DA404213A507E031688A0701D512A582
:100AC00002E0490704D511A5012401E0FFF7B2FFB8
:100AD00000210A2206F1240709E0B0FBF2FCB0FB7A
:100AE000F2F302FB1C00303078541846491C0028F1
:100AF000F3D123462A463046BDE8F04100F021BD3F
:100B0000000000002D0000002B000000200000006D
:100B100011680268006A530501D508700AE0D30520
:100B200001D5088006E0130603D5C217C1E900020B
:100B300000E0086001207047074B70B50D467B440C
:100B400001F0E9F80446284601F029F910B14FF008
:100B5000FF3070BD204670BD774C00002DE9FF5F6F
:100B600015468A460446DFF8AC80F8440027D8E9E9
:100B700000103E46CDE9001010E03AF816106A4623
:100B800002A801F0F3F9411C07D02178890603D5AA
:100B9000E269391891420DD80744761C2078800606
:100BA00002D5E069B84205DDAE42E6DB3AF8160050
:100BB0000028E2D1A069C01BA0612046FFF70AFF10
:100BC000D8E90010CDE90010002017E03AF818101D
:100BD0006A4602A801F0CAF9B0F1FF3F81460BD086
:100BE00000250DF1080B05E0D4E901211BF80500F3
:100BF00090476D1C4D45F7D308F10100B042804687
:100C0000E4DB206A384420622046FFF7F9FEBDE8A5
:100C1000FF9F0000967200002DE9F0418046D21D32
:100C200022F007020025D2E90002F52915A614D00A
:100C3000011E72F1000106DA0023D0EB030063EB22
:100C4000020211A608E0D8F800108B0701D50FA604
:100C500002E0490701D50EA601251146002408F13E
:100C6000240704E000F028FC30323A55641C50EAB6
:100C70000102F7D12B46324621464046BDE8F041FD
:100C800000F05FBC000000002D0000002B00000001
:100C90002000000030B4002100F1240408E002F03C
:100CA0000705D208303542EA4372DB086554491C17
:100CB00052EA0305F3D10468002310A2250708D5E2
:100CC00004F020040C4304D0C46901230CA2641E68
:100CD000C46130BC00F035BC10B504462146106834
:100CE000FFF7A8FE02462046BDE810400023D1E7EA
:100CF000D21D22F00701D1E90023CBE7000000005C
:100D000030000000F0B40D460188090502D5214CE1
:100D10007C4402E01F4C7C440E34002100F1240688
:100D200008E002F00F071209E75D42EA03721B09AF
:100D30007754491C52EA0307F3D1027800231207C3
:100D400004D5702D06D009B1022311342246F0BC1F
:100D500000F0F7BB01231034F8E770B504460D46E8
:100D600021461068FFF766FE024629462046BDE888
:100D700070400023C6E7D21D22F00703D3E9002309
:100D8000C0E70368126843F0200303600823C361CF
:100D90000023B7E7F87000002DE9F05F89460446AC
:100DA0004FF0000ADFF874B1FB44C0F820A02046E1
:100DB000E1688847002874D0252806D0D4E90121AD
:100DC0009047206A401C2062F1E700265F462046DB
:100DD000E16888472028054607DB312D05D27819C0
:100DE00010F8200C08B10643F1E7B00701D526F052
:100DF0000406C4F81CA00027C4F818A02A2D09D0A6
:100E0000284606F041FA38B304EB8708303DC8F8AD
:100E1000185019E059F8041B204604EB8702916131
:100E2000E1688847012F054618D1E069002820DADB
:100E300026F020061DE0D8F8180000EB800005EB36
:100E400040003038C8F818002046E1688847054659
:100E500006F01AFA0028EED1012F0AD02E2D08D163
:100E60002046E16888477F1C0546022F46F0200691
:100E7000C4DBA069002803DA404246F00106A06105
:100E8000F00701D026F010066C2D0BD0682D09D08C
:100E90004C2D39D06A2D35D0742D35D07A2D33D0E4
:100EA00016E038E0E1682F4620468847B8420546FC
:100EB00009D16C2F26D04FF48060E16806432046AC
:100EC0008847054604E06C2F1AD04FF48070064323
:100ED0000DB3A5F14100192802D8203546F400666B
:100EE0004A462946204626604E46FFF79FF980B1C4
:100EF00001280BD0F61D26F0070000F1080956E77F
:100F00004020E4E78020D8E70020D6E706F1040976
:100F10004DE7284652E7206ABDE8F09F8870000040
:100F20002DE9F041044616460D464769007B8007CF
:100F30002ED0384600F049FA50BB3EB3012E02D005
:100F4000022E25D104E0204600F02DFF05441DE0CF
:100F5000384600F048FAE168002841F01001E160ED
:100F600005DA204600F058F80120BDE8F081C903F9
:100F70000BD56268E16A914200D81146A26911441A
:100F80002269891A814200DD08460544002D01DAF4
:100F90000220EAE7E16A6068E268814206D29103D2
:100FA000E06203D522F4003141F01002A669002767
:100FB000AE4213DCE16A814201D90B4600E00346F0
:100FC00003EB060C2369ACEB030CAC4506DD814258
:100FD00001D98C4600E084469C4505D1A760276076
:100FE00042F02000A5620DE0AD1BE669AE1B814218
:100FF000A66000D90846C01A281A206058196060F7
:1010000022F0200003490840E060002084F8487086
:10101000ABE70000BFCFD7FFC16821F4001141F05A
:101020008001C16000218160016070472DE9F047B7
:10103000814614460E464FF0FF383248D56857694E
:10104000054209D03846A16900F0C5F9002811DB36
:101050002C48C0430540E5602B4632464946384699
:1010600000F0A4F9A16920F00042B21A114400284E
:10107000A16103D02046FFF7CFFF4046BDE8F087CF
:1010800070B504460569C06A6168884200D80846A0
:10109000E16821F42011E160C90312D5A84208D00B
:1010A0002246411B2846FFF7C1FF10B14FF0FF3029
:1010B00070BD0020E562C4E90150E06820F4803092
:1010C000E060002070BD10B50446C06820F020002C
:1010D000E060A16AA06988420DD02046FFF7D0FFEA
:1010E000E06820F4405040F01000E060A06AA06189
:1010F0002069E062606044F24001E0688843E0609B
:1011000010BD00001000020010B54248542100F04C
:1011100079FF4148542100F075FF4048542100F008
:1011200071FF3F493B483C4A3F4B08603D490A60DC
:101130003A491960531C0365481C10650120086575
:101140003B48344A39A1784400F072FE20B938484F
:1011500078440A3800F04FFF37482F4A35A17844C9
:1011600000F066FE20B9344878440A3800F043FFA6
:1011700032482A4A2FA1784400F05AFE20B92F485D
:1011800078440A3800F037FF40232248DC00002171
:10119000224600F029FE20B125487844543800F05A
:1011A0002AFF1D4822464023002100F01DFE20B1E9
:1011B00021487844543800F01EFF18482246102376
:1011C000002100F011FE002806D01C487844BDE83C
:1011D0001040563800F00FBF10BD104870B5006DBC
:1011E00020F001040B4800F09BFE0B4800F098FE35
:1011F0000A4800F095FE09E0206D20F00105204628
:1012000000F08EFE204600F030F92C46002CF3D181
:1012100070BD000068010020BC0100201002002009
:1012200000000020040000200800002072000000E0
:10123000FB6C000077000000E76C0000D36C00003E
:101240002DE9F041074615460E46102000F0DEF865
:1012500004000AD06760C4E9026500F0CFF80168B5
:10126000216004600020BDE8F0810120FBE710B59B
:10127000203AC0F00B80B1E81850A0E81850B1E84F
:101280001850A0E81850203ABFF4F5AF5FEA027C8E
:1012900024BFB1E81850A0E8185044BF18C918C0BE
:1012A000BDE810405FEA827C24BF51F8043B40F85F
:1012B000043B08BF7047D20728BF31F8023B48BF44
:1012C00011F8012B28BF20F8023B48BF00F8012B82
:1012D0007047000070B50C46016800204A1C3ED0E3
:1012E0003C22B1FBF2F302FB1313B1FBF2F12360DA
:1012F000B1FBF2F302FB1313B1FBF2F118226360AE
:10130000B1FBF2F302FB1313B1FBF2F146F2E03250
:101310000A440721A360B2FBF1F301FB132140F261
:10132000B553B2FBF3F5A161B2FBF3F103FB152258
:101330008900B2F5B77F08D39B10521EB2FBF3F5BC
:101340002944B2FBF3F503FB15220F4BE261616107
:1013500089077B440CD03B2A0AD3521C08E02C217D
:10136000204600F04FFE0120E0600AE0521A401CC7
:10137000195C9142FAD9521CC4E903204FF0FF30A6
:101380002062204670BD0000216B00000EB5CDE943
:101390000001FFF786F8029069460120ABBE0EBD42
:1013A00008B5694600900220ABBE08BD1FB58DE8A8
:1013B000070069460520ABBE04B010BD1FB58DE81F
:1013C0000F0069460620ABBEF6E708B569460090F7
:1013D0000920ABBE08BD1CB5CDE9000169460A2055
:1013E000ABBE1CBD704708B5694600900C20ABBE73
:1013F00008BD000000487047900200200048704778
:10140000C8020020004870479002002070B50646D0
:1014100000F044FE056806F10B0020F00704B4421A
:101420009CBF002070BD2B466A68BAB11068A0420C
:1014300010D304F1080188423CBF5068586007D3BC
:101440005168101941601168091B016058601460EF
:10145000101D70BD13465268002AE7D12146284668
:1014600000F024FE0028DED170BD70B50446051FD3
:1014700000F014FE0068002C14BF446870BD002CFE
:1014800018BFAC423CBF20466468F8D301680A1814
:10149000AA4218BF456003D12A680546114401607D
:1014A00028684119A1421CBF6C6070BD6168696009
:1014B00021680844286070BD30B5B0F10A0271F1AE
:1014C00000034FEA900E4EEA817EB0EB0E0061EB16
:1014D00091014FEA101E4EEA017E10EB0E0041EB27
:1014E00011114FEA102E4EEA016E10EB0E0041EB87
:1014F00011214FEA104E4EEA014E10EB0E0041EB67
:101500001141401841F100014FEAD00040EA41701A
:101510004FEAD1014FEA810444EA907410EB800550
:1015200044EB01046D1944EB0404521BA3414FF03A
:10153000000348BF0A3200D530BD401C41F1000114
:1015400030BD2DE9F0470D4699469246044600F11C
:1015500024080168880604D5E06921F010012160A3
:1015600000E00120A84201DD471B00E00027A1693F
:101570007A1902EB0900081AA0612078C00602D48B
:101580002046FFF727FA002608E0D4E901211AF8DF
:1015900006009047206A401C761C20624E45F4DB12
:1015A0002078C0060AD52046FFF714FA06E0D4E9F1
:1015B000012130209047206A401C2062381EA7F18C
:1015C0000107F4DC07E0D4E9012118F80500904791
:1015D000206A401C2062281EA5F10105F3DC20468C
:1015E000FFF70EFA2078000602D50220BDE8F0874A
:1015F0000120FBE72DE9FF4F0C461E464FF0FF3759
:101600008BB0D2E90001DDF860800A908A46C1F310
:101610000A5505B93D46002108464FF00000BAF1D1
:10162000000F00F4400005DA00EB80004FF44001A9
:1016300001EA50004FEA9059B9F1010F00DDB946B7
:101640000A9850EA4A000ED044F61050A5F2FF3531
:1016500045432F14B8F1000F1ED07542291E1EDD20
:10166000C9F100021CE0B8F1010F4FF0000001D0F9
:10167000302103E0F24305E02154401CB042FBDB83
:1016800030460022002121540B99C1F80880C1E99D
:1016900000200FB0BDE8F08FBD1B6D1CDEE74A4691
:1016A00000DA694206A800F08BFD06AB93E807005C
:1016B00003AB83E8070050460A9905F0BFF98DE8AF
:1016C0000700A0F500501F3800900398002D0ADD98
:1016D00042F21F014A460844002303A903906846CA
:1016E00005F028FC09E0A0F500504A461F38002309
:1016F00003A90390684605F032FC8DE8070000045A
:10170000000C03D04FF0FF30410800E01046B8F164
:10171000000F03D00022009215461EE0751E05D46E
:10172000FFF7CAFE303262556D1EF9D5B34601226D
:10173000084302D000227F1C04E02078302801D129
:1017400000227F1E002A099784D01DE0112D07DAA0
:10175000FFF7B2FE303262556D1C50EA0102F5D13E
:10176000084302D00098C8B10EE00021681E05E0D1
:10177000235C625C63542254401E491C8142F7DBA7
:10178000AB46A81B401E0990002004F80B000B98E4
:10179000099AC0F80880C0E9002B7AE711264FF0BB
:1017A000000857E72DE9F04F88460446D21D22F085
:1017B000070191B0D1E90001CDE90A0105F00FFD63
:1017C00002460B98C00F01D02D2007E0206881074A
:1017D00001D52B2002E0202101EAC000032A099054
:1017E00001D0072A05DB03464146204600F0A8FC4D
:1017F0000BE12078800601D5E06900E00620B8F111
:10180000650F814606D0B8F1660F18D0B8F1670FA2
:1018100070D131E00020B9F1110F009001DB1123EC
:1018200001E009F101030AAA01A90CA8FFF7E2FEF1
:10183000DDE90C70002609F10105834647E001202F
:101840004B4600904FF000470AAA01A90CA8FFF7E9
:10185000D1FEDDE90DB00C995D46002610B909F105
:1018600001000D18B9EB050003D4C0F1FF3609F1F2
:101870000105A5EB09002BE0B9F1010F01DA4FF0EA
:1018800001090020B9F1110F0090484601DD112334
:1018900000E003460AAA01A90CA8FFF7ABFEDDE9A8
:1018A0000C704D4600268346207800070AD4AB45CD
:1018B00000DA5D4601A8012D04DD411911F8011C73
:1018C000302907D04F4502DA17F1040F04DA01205E
:1018D00082460FE06D1EEEE7002F02DCED1B3E445A
:1018E00003E0781CA84200DD7D1CB81B00F1010A52
:1018F0004FF000472078000703D4AA4501DB4FF0E2
:10190000FF3A0021B7F1004F0DF143088DF8431065
:1019100024D002202B23002F01DA7F422D230A211D
:10192000021EA0F1010000DC5FB197FBF1FC97FB08
:10193000F1F201FB1C7C17460CF1300C08F801CDCC
:10194000EEE7A8F1010003702188090501D54521C2
:1019500000E06521A0F1010800F8011C09980FA919
:10196000A1EB0807FF1D00B10120411901EBEA704E
:10197000A1693844081A401EA0612078C00602D42C
:101980002046FFF727F8099828B1D4E901219047AC
:10199000206A401C20622078C00622D52046FFF72E
:1019A00019F81EE0002E04DBB34502DD01A8805DBE
:1019B00000E03020D4E901219047206A401C2062D9
:1019C000761CAAF101005FEA000A0AD1FEF7DCFFEB
:1019D000C0680168405CD4E901219047206A401C3E
:1019E0002062281EA5F10105DCDC07E0D4E9012115
:1019F00018F8010B9047206A401C2062381EA7F19E
:101A00000107F3DC2046FEF7FBFF032011B041E69F
:101A10002DE9F04F04460D46D21D22F0070089B093
:101A2000D0E900974846394605F0D9FB0246F80F41
:101A300001D02D2307E02068810701D52B2302E088
:101A4000202101EAC0038DF820300BB1012000E015
:101A50000020032A824601D0072A04DB29462046BB
:101A600000F06EFB3FE12078800601D40D2500E0F8
:101A7000E569C7F30A560D2D49DA00214FEA175BD5
:101A800008464FF00000002F00F4400007DA00EB9A
:101A900080004FF4400100EBD07001EA6000811536
:101AA000012901DD4FF0FF3100224FEA850CBCF126
:101AB000180F06D31346ACF118004FF08052C24005
:101AC00003E04FF4801323FA0CF30CF10C0CBCF17F
:101AD000200F04D3ACF1200C09FA0CF001E007FA56
:101AE0000CF000294FF0004801DD18B90FE00ED1CD
:101AF00040450CD319EB02095F4121B9404502D1A1
:101B00009F4329EA0209BBEB175F00D0761C2088AF
:101B1000000502D57B48784402E07A4878441938B9
:101B200008AA302302F80A30037C0AF10101002ED2
:101B30000AF1020A53546A4602DC4FF0300101E018
:101B40004FF031014FF001088DF8001002D0A6F2DD
:101B5000FF3603E059EA470100D06B4E002D02DC4E
:101B60002178090704D54FF002082E218DF80110C5
:101B7000C44600210BE0C7F303433F01C35C491C8B
:101B80006D1E02F80830052908F1010801DA002D60
:101B9000F1DC00210CE000EB1973491C1B786D1E71
:101BA000082902F808304FEA091908F1010801DA9A
:101BB000002DF0DC21688B0602D516E0A8F10108A3
:101BC000E04505DD02EB080313F8013C302BF5D0AE
:101BD000B8F1000F09DD02EB080313F8013C2E2BCE
:101BE00003D1090701D4A8F10108002D05DD3E212C
:101BF00002F808106D1E08F10108407C002E02F862
:101C0000080008F1010804DA2D20764202F80800E5
:101C100002E02B2002F808000A214FF47A70864275
:101C200008F101080BDB96FBF0F3303302F80830C3
:101C300096FBF0F308F1010800FB136601E0642E47
:101C40000CDB642096FBF0F3303302F8083096FB8F
:101C5000F0F308F1010800FB136601E00A2E06DB31
:101C600096FBF1F0303002F8080008F1010896FB0D
:101C7000F1F001FB1060303002F80800A16908F1B2
:101C8000010808EB050202EB0A00081AA06120789F
:101C9000C00602D42046FEF79DFE216A08AE01EB85
:101CA0000A00206204E0D4E9012116F8010B9047F4
:101CB000BAF1010AF7D22078C00602D52046FEF715
:101CC00089FE6E4609E016F8010B3E280FD0D4E9D4
:101CD00001219047206A401C2062B8F10108F2D22D
:101CE0002046FEF78DFE09B00320BDE8F08F206A84
:101CF0002844206203E0D4E90121302090476D1E82
:101D0000EBD3F8E74A63000002FCFFFF01694A1CBD
:101D100002610878704700B58FB0CDE9013100212C
:101D2000059105497944CDE9031011466846FFF74E
:101D300033F80FB000BD0000E5FFFFFF0A6802F8AE
:101D4000010B0A60704710B5436913B1AFF300800F
:101D500001E0FEF778FE012010BD127800F12401A9
:101D60000A7000224A700122EDE711684FF0FF323D
:101D7000E9E710B5436913B1AFF3008001E0FEF766
:101D8000EDFE012010BD128800F1240182840022A2
:101D9000C2840122EDE711684FF0FF32E9E7007BD2
:101DA00000F08000704710B50146C268900703D06C
:101DB000900607D5886A0AE0FFF724FB012101603D
:101DC000881E10BD8B69486818440B69C01A91F8C9
:101DD00048301BB191F84910401A10BD1103FCD5D1
:101DE0000028FADD401E10BD70B5C468A50713D0E9
:101DF000650211D4B2F5807F09D0B2F5007F06D01C
:101E0000B2F5806F08D1012300F1240106E05D1EC8
:101E10006FF07F46B54201D3012070BD0161C361FF
:101E2000416024F470611143C160002070BD000066
:101E30002DE9F0410C461646070047D0104600F049
:101E40006FF82078611C61280AD0722802D07728A8
:101E50003CD102E00125002405E00225042402E033
:101E6000082448F2020511F8010B2B2806D062283D
:101E700009D011F8010C74280AD00BE045F00305D5
:101E800044F00204EFE745F0040544F00104EAE7FA
:101E900044F0100438462146FFF778FA411C15D06B
:101EA0000021316171604FF40071F560F161706182
:101EB000200704D5304602220021FFF731F8306DAB
:101EC00040F0010030653046BDE8F0810020FBE7BE
:101ED0002DE9F0410D460646104C206DC10704D097
:101EE000410804D020F00104F7E722460EE0542018
:101EF000FFF78CFA07000ED0206D47F00101084370
:101F000054212065384600F07DF83A46294630468F
:101F1000BDE8F0418CE70020D6E700006801002012
:101F20002DE9F04704464FF000094FF0FF37C56830
:101F3000D4E90486A80707D02046FFF7A1F8304669
:101F4000FFF72EFA002802DA3846BDE8F0872805A8
:101F500002D54046FFF789FA4C21204600F052F89E
:101F6000206D20F0010020654846EEE72DE9F041A4
:101F700016460C460546FEF701FA036893F8010180
:101F8000012807D0FF2C12D8185D80B101202C70D9
:101F9000BDE8F081D3F807013246214603F207136A
:101FA000C7182846BC46BDE8F041002360474FF003
:101FB000FF30EDE72DE9F0410646FFF71FFA8046B6
:101FC000454613E016B1E068B0420ED120682860A3
:101FD000D4E90101D8F8007088472046FFF745FA98
:101FE000D8F80000B842EBD100E025462C68002C60
:101FF000E8D1BDE8F08110B500F062F9BDE810400D
:1020000000F059B94FF0000200B5134694469646C9
:10201000203922BFA0E80C50A0E80C50B1F12001FB
:10202000BFF4F7AF090728BFA0E80C5048BF0CC0A9
:102030005DF804EB890028BF40F8042B08BF704707
:1020400048BF20F8022B11F0804F18BF00F8012B79
:1020500070477546FFF7CEF9AE4605006946534610
:1020600020F00700854618B020B5FEF76BF9BDE8F3
:1020700020404FF000064FF000074FF000084FF0EF
:10208000000BAC46ACE8C009ACE8C009ACE8C0093C
:10209000ACE8C00921F007018D4670470048704741
:1020A00098020020704770477047704738B5044663
:1020B0000A4600206946AFF30080002808BF38BDFB
:1020C00002460099204600F01BF9012038BD01208E
:1020D00000F049B9F8B5AFF30080054600200C4682
:1020E000102000BF0646A819A0420DD93246694605
:1020F0000020AFF30080070008BF00F034F900981B
:10210000A04218BF0546C419FFF7C8FF056007467F
:10211000F01D20F007004619284600F00AF8B442E6
:1021200008BFF8BDA21B31463868BDE8F84000F092
:10213000E7B800210160C0E9011070471020704726
:102140002DE9F0411F46044603260168072A01F4E1
:10215000006004DB08B116A505E016A503E008B190
:1021600015A500E015A521F010002060A069C01E93
:10217000A0610FB1401EA0612046FEF72BFC4FB1BD
:10218000D4E9012138469047206A401C2062C01CD7
:10219000206206E0206AFAE7D4E9012115F8010B74
:1021A0009047761EF8D22046FEF72AFCBDE8F08163
:1021B0004E414E006E616E00494E4600696E6600EB
:1021C0002DE9F047814616468AB0354878440DC857
:1021D0008DE80D0032487844801C03AC0DC884E8BB
:1021E0000D0041F69B300844372190FBF1F290FB43
:1021F000F1F5A5F1800501FB12041B3C02D56442F8
:10220000012000E00020DFF898A080460027FA4473
:10221000AAF1BE0A0EE0E0070AD03246684607EB94
:10222000470101230AEB810104F099FE8DE80700C4
:1022300064107F1C002CEED1194F7F44AE3F19E093
:10224000E80715D007EB04100DF1180A90E80E000E
:102250008AE80E00C068F04201D198190890324611
:10226000012306A903A804F07AFE03AB83E8070064
:102270006D10641C002DE3D14FF001033246694616
:10228000B8F1000F03A802D004F054FE01E004F0FE
:1022900066FEC9E90001C9F808200AB0BDE8F08768
:1022A000305D000010B50446AFF300802046BDE865
:1022B0001040FEF732B8002801D000F01BB870477C
:1022C00010B5014602A000F035F8012010BD000055
:1022D00053494752545245443A20526564697265E5
:1022E00063743A2063616E2774206F70656E3A20C4
:1022F0000000000001491820ABBEFEE726000200E6
:10230000034640688C46002818BF88423CBF0346FD
:102310004068F8D318681844884207D00CF10300CD
:1023200020F00700001D411A521A0146081D0A60DC
:10233000FFF79BB870B505460C460A2000E06D1CFF
:1023400000F018F835B128780028F8D102E0641CB4
:1023500000F010F814B120780028F8D1BDE87040E2
:102360000A2000F007B810B500F00CF8BDE81040E6
:10237000FFF7A1BF08B569468DF800000320ABBE8A
:1023800008BD000010B5012805D0002103A0FFF70B
:10239000D1FF012010BD09A1F8E7000053494752C1
:1023A000544D454D3A204F7574206F662068656125
:1023B00070206D656D6F7279000000003A204865ED
:1023C0006170206D656D6F727920636F72727570C8
:1023D00074656400FFE7FEE77047000080B54FF4C6
:1023E000007000F021F898B1FFE740F60C01C4F24C
:1023F0000101086880F48070086040F23031C2F258
:102400000001012008704FF4007000F003F8FFE7AE
:1024100080BD000081B00090009840F21441C4F2E9
:102420000101086001B0704783B0029000208DF870
:102430000700009040F20040C4F2010000680299D9
:102440000840009040F21440C4F201000068029974
:10245000084207D0FFE7009820B1FFE701208DF880
:10246000070003E000208DF80700FFE79DF8070054
:1024700003B0704782B001900020009040F200400D
:10248000C4F20100009001988079002859D0FFE73C
:102490000198026840F20041C4F2010108689043CB
:1024A00008600198026840F20441C4F20101086822
:1024B00090430860019801790098084400900198C1
:1024C000026800990868104308600198026840F2A9
:1024D0000841C4F20101086890430860019802684D
:1024E00040F20C41C4F20101086890430860019871
:1024F0004079102813D1FFE70198026840F20841A3
:10250000C4F201010868104308600198026840F2B3
:102510000C41C4F2010108681043086010E040F269
:102520000040C4F2010000900198417900980844ED
:102530000090019802680099086810430860FFE75E
:102540000BE0019801790098084400900198026816
:102550000099086890430860FFE702B070470000E8
:1025600082B08DF807008DF80610002000909DF8CD
:10257000060000F0030081000F2088400090009BBF
:102580009DF8060000F0FC010822C4F20102885800
:10259000984388509DF807109DF8060000F003034B
:1025A0009B0001FA03F300F0FC018858184388509F
:1025B00002B0704788B00790069100200590049003
:1025C00003900290019000900698C07800F00F00F0
:1025D00005900698C078C006002806D5FFE7069843
:1025E0008178059808430590FFE706980078002851
:1025F0004BD0FFE707980068019000200390FFE7A9
:10260000039807283DD8FFE70399012088400290EE
:10261000069800880299084004900498029988421C
:102620002AD1FFE703988000029002990F2088408A
:10263000009000990198884301900598029900FA4A
:1026400001F10198084301900698C078282806D126
:10265000FFE7039901208840079948610BE006983D
:10266000C078482806D1FFE70399012088400799E0
:102670000861FFE7FFE7FFE7FFE7039801300390FA
:10268000BEE7019807990860FFE706980088B0F553
:10269000807F50DBFFE7079840680190002003909F
:1026A000FFE70398072842D8FFE7039800F10801E5
:1026B0000120884002900698008802990840049002
:1026C0000498029988422DD1FFE703988000029078
:1026D00002990F208840009000990198884301904A
:1026E0000598029900FA01F10198084301900698B3
:1026F000C078282808D1FFE7039800F108010120DD
:10270000884007994861FFE70698C078482808D1B3
:10271000FFE7039800F1080101208840079908614C
:10272000FFE7FFE7FFE7039801300390B9E701985F
:1027300007994860FFE708B07047000083B0029037
:102740004EF62C50CEF200000068C00F68B1FFE7D3
:102750004EF62C51CEF20001086840F000400860AF
:10276000029988690230886170E04EF62450CEF2FA
:102770000000006840F2F021C2F2000101910862FD
:102780004EF62850CEF20000007881F824004EF674
:102790002950CEF20000007888624EF63850CEF212
:1027A00000000068C8624EF62A50CEF20000008891
:1027B00008864EF62C50CEF20000006848634EF6B4
:1027C0003050CEF20000006888634EF63C50CEF2E6
:1027D00000000068C86340F2C841C2F20001002056
:1027E0000860FFE740F2C840C2F20000006808B984
:1027F000FFE7F7E70298006840F2F021C2F200011B
:10280000009108600298406848600298806888607B
:102810000298C068C860029800690861029840691F
:1028200048610298806988610298C069C86140F275
:10283000C841C2F2000100200860FFE740F2C84032
:10284000C2F20000006808B9FFE7F7E703B070477D
:10285000FFE7FEE77047000084B00390002002907D
:1028600001900F2000900398C078C0B3FFE74EF6A8
:102870000C50CEF200000068C043C0F3022002906A
:102880000298C0F10400019000980299C84000909D
:1028900003984078019988400290039880780099C5
:1028A00001400298084302900298000102900298A9
:1028B000039909784EF20042CEF200028854039840
:1028C000027802F01F01012088404EF20011CEF282
:1028D000000141EAD20121F0030108600FE00398F2
:1028E000027802F01F01012088404EF28011CEF2E2
:1028F000000141EAD20121F003010860FFE704B0C2
:102900007047000081B0009000980021C0F2FA5199
:1029100008434EF60C51CEF20001086001B070473A
:1029200082B001900020009041F20401C4F2020143
:1029300008680090009820F4E0600090019A0098E8
:10294000104300900098086002B0704782B0019078
:102950000020009041F20401C4F2020108680090D6
:10296000009820F460500090019A009840EAC2005C
:1029700000900098086002B07047000082B001909B
:102980008DF803109DF8030048B1FFE7019A41F26A
:102990001C01C4F2020108681043086008E0019AB3
:1029A00041F21C01C4F20201086890430860FFE78D
:1029B00002B0704782B001908DF803109DF80300BB
:1029C00048B1FFE7019A41F21801C4F20201086818
:1029D0001043086008E0019A41F21801C4F20201B4
:1029E000086890430860FFE702B0704787B0069020
:1029F00000200590049003900290019041F20400A1
:102A0000C4F2020001680022C0F63C0211400391AA
:102A1000006800F4803002909DF80F000007002845
:102A200006D4FFE70399022000EB9140039006E0F3
:102A300003996FF4F77000EB91400390FFE7029861
:102A400040B9FFE7039840F60011C0F23D0148434A
:102A5000049019E041F20400C4F20200006880030F
:102A6000002808D5FFE7039840F60011C0F23D01A9
:102A70004843049007E0039841F20021C0F27A0134
:102A800048430490FFE7FFE741F20400C4F202006C
:102A9000006800F00C0005900598009040B1FFE739
:102AA000009804280BD0FFE7009808280ED011E00A
:102AB000069941F20020C0F27A00086011E0069900
:102AC00041F20020C0F27A0008600AE004980699FA
:102AD000086006E0069941F20020C0F27A00086022
:102AE000FFE741F20401C4F20201086800F0F000BF
:102AF0000590059800090590059A48F20000C0F677
:102B00000000825C0192069B1A68DDF804C022FA7C
:102B10000CF25A600A6802F4E0620592059A120A01
:102B20000592059A825C0192069B5A68DDF804C002
:102B300022FA0CF29A60096801F460510591059936
:102B4000C90A05910599405C019006994868019A67
:102B5000D040C86041F22C00C4F20200016801F0CC
:102B60000F010591059A47F6D071C0F60001895C06
:102B70000191069A5168019BB1FBF3F15161006824
:102B800000F4F8700590059800090590059800F08C
:102B90000F0147F6E070C0F6000030F81100019018
:102BA00004980199B0FBF1F00699086107B07047ED
:102BB00080B58AB0DDF830C009900891079206937D
:102BC00040F2CC40C2F200000290FFE70298007889
:102BD00018B9FFE700F0FCFDFFE7FFE740F2CC404B
:102BE000C2F200000490099802282AD8FFE7EFF308
:102BF00011804FF0200181F3118801900498099908
:102C000001EB410100EBC10018300390099878B145
:102C1000FFE70898039908600798039948600698A9
:102C2000039988600399002008610399C860FFE751
:102C30000C9803994861019880F311880020059051
:102C400003E04FF0FF300590FFE705980AB080BD24
:102C500080B500F0BDFD80BD80B586B005900491C3
:102C6000039240F2CC40C2F200000190FFE70198CD
:102C7000007818B9FFE700F0ABFDFFE7FFE7EFF3DF
:102C800011804FF0200181F311880090059804997C
:102C9000039A00F007F80290009880F311880298D8
:102CA00006B080BD80B58AB0099008910792089857
:102CB0000490099800EB400140F2CC40C2F20000C1
:102CC00000EBC1001830039003984069029040B1B6
:102CD000FFE70298012819D0FFE7029802282CD0BC
:102CE00032E0039800F0D0FD0590059807998842DE
:102CF00003D2FFE70020069007E0079806900398AC
:102D00000499079A01F04AF8FFE720E0039800F0E1
:102D1000BBFD059005980799884203D2FFE7059807
:102D2000019002E007980190FFE701980690039850
:102D30000499069A01F032F809E003980499079A79
:102D400000F0BAFF069002E000200690FFE7069828
:102D50000AB080BD82B080B584B00793069203901C
:102D6000029106A80090039802996A4600F008F8BC
:102D70000190019804B0BDE8804002B070470000A7
:102D800080B5A4B023902291219207A81B904020E7
:102D90001C9000201D9023991F911E90FFE7229800
:102DA00000788DF883002298013022909DF88300EE
:102DB00008B9FFE76DE19DF88300252840F05C81AC
:102DC000FFE70020189001201A90FFE72298007872
:102DD0008DF883009DF883002338014604910D2867
:102DE00029D80499DFE801F01F272727272727275D
:102DF00017270727270F189840F0010018902298EE
:102E0000013022901AE0189840F0020018902298A1
:102E10000130229012E0189840F004001890229897
:102E2000013022900AE0189840F00800189022988B
:102E30000130229002E000201A90FFE7FFE71A9885
:102E40000028C3D1FFE700201790FFE72298007801
:102E50008DF883009DF88300302805DBFFE79DF89F
:102E600083003A2801DBFFE710E02298013022902E
:102E7000179800EB80019DF8830000EB410030388B
:102E80001790FFE701200028E0D1FFE7002019900C
:102E9000229800788DF883009DF883002E2825D194
:102EA000FFE7229801302290FFE7229800788DF802
:102EB00083009DF88300302805DBFFE79DF8830041
:102EC0003A2801DBFFE710E02298013022901998A0
:102ED00000EB80019DF8830000EB41003038199031
:102EE000FFE701200028E0D1FFE7FFE72298007804
:102EF0008DF88300FFE79DF883006C2805D0FFE77D
:102F00009DF88300682808D1FFE7229801302290BD
:102F1000229800788DF8830000E004E0FFE70120AC
:102F20000028E8D1FFE79DF883000146039125289A
:102F300000F09880FFE7039858284FD0FFE70398E8
:102F4000632814D0FFE7039864281FD0FFE7039895
:102F5000702876D0FFE70398732853D0FFE70398D3
:102F6000752827D0FFE70398782837D07FE0219A8B
:102F70001068011D116000681A901A988DF81B00E6
:102F80009DF81B101BA800F05BFE71E0219A1068F1
:102F9000011D116000681A901A99199B1798DDF8A5
:102FA00060C06A46C2F804C010601BA80A2200F084
:102FB0008BFC5DE0219A1068011D116000681A9079
:102FC0001A99199B1798DDF860C06A46C2F804C0C8
:102FD00010601BA80A2200F05DFD49E0219A1068EC
:102FE000011D116000681A901A99199B1798DDF855
:102FF00060C06A46C2F804C010601BA8102200F02E
:1030000049FD35E0219A1068011D116000680590A6
:10301000FFE7059800788DF883000598013005904A
:103020009DF8830008B9FFE70AE09DF883101BA80C
:1030300000F006FEFFE71E98B0F1FF3FE9DCFFE776
:1030400016E0219A1068011D116000681A901A9903
:10305000684600224260082303601BA8102200F08B
:1030600019FD05E01BA8252100F0EAFD00E0FFE7BF
:1030700022980130229005E09DF883101BA800F0F3
:10308000DFFDFFE7FFE71E98B0F1FF3F3FF787AE98
:10309000FFE71E9801280EDBFFE71D9830B1FFE720
:1030A00023981D9A07A9FFF7D7FDFFE71D991E98E2
:1030B00008441E90FFE71E9824B080BD80B543F2FF
:1030C0000000C4F20100602100F032F838B1FFE7DF
:1030D00043F20000C4F2010000F086F810E043F271
:1030E0000000C4F20100712100F022F838B9FFE7B6
:1030F00040F2C441C2F2000100200860FFE7FFE790
:1031000080BD000082B001908DF803109DF803008F
:1031100030B1FFE70199088840F04000088005E0E1
:103120000199088820F040000880FFE702B070474E
:1031300083B002908DF8071000208DF80600ADF8DE
:103140000400ADF80200ADF800009DF8070000F0A3
:103150000F01012000FA01F1ADF804109DF80710ED
:103160000909ADF80210BDF802108840ADF8020060
:1031700002988088BDF802100840ADF8000002985F
:103180000089BDF804100840000440B1FFE7BDF815
:10319000000020B1FFE701208DF8060003E00020C9
:1031A0008DF80600FFE79DF8060003B070470000A9
:1031B00082B00190ADF8021000208DF80100019856
:1031C0000089BDF802100840000420B1FFE701208B
:1031D0008DF8010003E000208DF80100FFE79DF865
:1031E000010002B07047000081B000900098808913
:1031F00001B0704782B00190ADF80210BDF8020036
:103200000199888102B0704783B00290019100203B
:10321000ADF8020002980088ADF80200BDF8020087
:1032200000F44150ADF80200019908884A88104323
:103230008A881043CA8810430A8910434A89104378
:103240008A891043C9890143BDF802000843ADF8DB
:103250000200BDF80200029908800299888B20F4D0
:10326000006088830198008A0299088203B0704741
:1032700082B001908DF803109DF8030030B1FFE794
:103280000199888840F00400888005E001998888C9
:1032900020F004008880FFE702B07047704700000C
:1032A00084B0002003908DF80B00019042F20001E1
:1032B000C4F20201086820F003000860086840F0CA
:1032C0000300086041F20401C4F2020100910868A1
:1032D0000860086840F400500860086840F4A06086
:1032E000086008684FF6FF72CFF2C07210400860A5
:1032F0000868039003980022C0F63C021043039034
:103300000398086041F20001C4F20201086840F02D
:1033100080700860FFE741F20000C4F2020000681C
:103320008001002801D4FFE7F5E741F20401C4F26F
:103330000201086820F003000860086840F00200FD
:103340000860FFE741F20400C4F20200006800F0E8
:103350000C00082801D0FFE7F4E704B07047000034
:1033600040F6B010C2F20000006840B1FFE740F63E
:10337000B011C2F20001086801380860FFE7704729
:1033800080B54EF68851CEF20001086840F4700016
:10339000086041F20002C4F20202106840F001002D
:1033A000106041F20401C4F2020108684CF200030B
:1033B000CFF6FF031840086010684FF6FF73CFF692
:1033C000F66318401060106820F4802010600868D0
:1033D0004FF6FF72CFF200721040086041F22C01EC
:1033E000C4F202010020086041F23001C4F202017F
:1033F000086041F20801C4F202014FF41F000860A6
:1034000041F21C01C4F20201086840F080500860DB
:1034100047F20C02C4F20002106840F00100106094
:10342000086820F08050086042F20001C4F20201F6
:10343000086840F090000860FFF732FF4EF6085130
:10344000CEF200014FF00060086080BD70470000C0
:1034500080B582B044F60000C4F2000040F225516D
:1034600000F0B6F880B3FFE744F60000C4F20000B5
:1034700000F098F98DF80700FFE79DF8072048F263
:103480005351C0F600010020FFF764FCFFE79DF8F0
:10349000070040F6BC11C2F2000102F06FF80D28DF
:1034A00011D1FFE740F6BC10C2F20000009000F11D
:1034B000080140F22800C2F2000003F089F90098E8
:1034C00002F04CF8FFE7FFE702B080BD86B0059040
:1034D000ADF812108DF81120002003900290019099
:1034E0000090BDF8120040F66A11884201D1FFE752
:1034F000FFE7059800909DF8120040090390BDF881
:10350000120000F01F0002900299012088400190F3
:103510000398012804D1FFE700980C3000900CE0DC
:103520000398022804D1FFE700981030009003E0D0
:10353000009814300090FFE7FFE79DF8110030B1CC
:10354000FFE7019A009908681043086005E0019AB6
:103550000099086890430860FFE706B070470000D4
:1035600082B001908DF803109DF8030030B1FFE7A1
:103570000199888940F40050888105E00199888983
:1035800020F400508881FFE702B0704782B00190BC
:10359000ADF8021000208DF80100BDF80200B0F572
:1035A000007F01D1FFE7FFE701980088BDF8021016
:1035B0000840000420B1FFE701208DF8010003E07E
:1035C00000208DF80100FFE79DF8010002B0704770
:1035D00086B00590ADF81210002003900290019083
:1035E0008DF80300BDF8120040F66A11884201D13F
:1035F000FFE7FFE79DF8120040090190BDF81200B7
:1036000000F01F000290029901208840029001986A
:10361000012806D1FFE705988189029808400290A9
:1036200010E00198022806D1FFE70598018A029868
:103630000840029005E00598818A029808400290AF
:10364000FFE7FFE79DF813000390039901208840EE
:10365000039005980188039808400390029838B1B8
:10366000FFE7039820B1FFE701208DF8030003E096
:1036700000208DF80300FFE79DF8030006B07047B7
:1036800080B58EB00D900C9100200B900A9009909F
:10369000089007900C98808908B1FFE7FFE70D9824
:1036A00007900D98008A0B900B984CF6FF7108401C
:1036B0000B900C98C1880B9808430B900B980D99B0
:1036C00008820D9880890B900B984EF6F3110840F4
:1036D0000B900C9988880A891043498901430B98FB
:1036E00008430B900B980D9988810D98808A0B9058
:1036F0000B984FF6FF4108400B900C9881890B986E
:1037000008430B900B980D99888201A8FFF76EF97A
:10371000079843F60001C4F20101884210D0FFE788
:10372000079845F20001C4F20101884208D0FFE782
:10373000079845F20041C4F20101884203D1FFE736
:1037400004980A9002E003980A90FFE70A9819216A
:1037500048430C9909688900B0FBF1F00990099879
:1037600048F21F51C5F2EB11A0FB01026FF00F00F0
:1037700000EA52000B90099B0B980009642200FBA1
:1037800012300890089A322000EB0210A0FB0110C2
:10379000C0F343110B9808430B900B980D990881C7
:1037A0000EB080BD81B00090009880886FF35F20DC
:1037B00001B0704782B00190ADF80210BDF8020070
:1037C0006FF35F200199888002B07047FFE7FEE742
:1037D00080B582B040F2CC40C2F200000190019965
:1037E0000320086101994861019848F27151C0F6BF
:1037F00000018161019A40F28450C2F20000D06160
:10380000019A4FF480601062019A00209062019A40
:103810005062019AD062019A1166019A40F2745185
:10382000C2F200015166019A102191660199086760
:103830000199C866019948670198073048F26D51AF
:10384000C0F60001FCF709FEBFF35F8F019848F254
:103850006651C0F60001FCF700FEBFF35F8F0199CF
:1038600020208871BFF35F8F02B080BD80B501F06A
:1038700085FD01F099FD01F0ADFD01F0C1FD01F004
:10388000D5FD01F0E9FD80BD84B003900398006987
:1038900002900398C068019002980199884209D863
:1038A000FFE7039880680199401A0299084401389B
:1038B000009005E002990198C04308440090FFE79A
:1038C000009804B07047000010B58CB0DDF83CC023
:1038D000DDF838C00B900A91099208930A98B0F16C
:1038E000FF3F04DCFFE70A984042059002E00A9897
:1038F0000590FFE70598069001200790FFE70698DE
:103900000999884209DBFFE70698099990FBF1F0D5
:103910000690079801300790F1E7089807998842C8
:1039200003D9FFE708980790FFE70E9870B1FFE70B
:103930000A98002806D4FFE79DF83C0040070028BD
:1039400004D5FFE70E9801380E90FFE79DF83C0084
:103950008007002803D5FFE7089858B3FFE79DF8D4
:103960003C00C00730BBFFE70E9810B3FFE7FFE74E
:103970000E990020049041B1FFE707990E9A0020AC
:10398000914238BF01200490FFE70498C00778B146
:10399000FFE70E9801380E900B98202100F050F9A7
:1039A0000B98C068B0F1FF3F01DCFFE700E0DFE704
:1039B000FFE7FFE70B98C068002869D4FFE70A9883
:1039C000B0F1FF3F08DCFFE70A9840420A900B98ED
:1039D0002D2100F035F90CE09DF83C00400700284F
:1039E00005D5FFE70B982B2100F02AF900E0FFE74F
:1039F000FFE70B98C068002849D4FFE79DF83C001A
:103A0000800700282ED5FFE79DF83C00C00748BB83
:103A1000FFE7089830BBFFE70E9810B3FFE7FFE71A
:103A20000E990020039041B1FFE707990E9A0020FC
:103A3000914238BF01200390FFE70398C00778B197
:103A4000FFE70E9801380E900B98302100F0F8F83F
:103A50000B98C068B0F1FF3F01DCFFE700E0DFE753
:103A6000FFE7FFE70B98C06800280FD4FFE70B982B
:103A70000A99099A089BDDF838C00F9CEE46CEF8EB
:103A80000440CEF800C000F005F8FFE7FFE7FFE7CD
:103A90000CB010BD80B58CB0DDF83CC0DDF838C08E
:103AA0000B900A91099208930A98059001200690BC
:103AB0000490FFE705980999884209D3FFE7059824
:103AC0000999B0FBF1F00590049801300490F1E7FA
:103AD00008980499884203D9FFE708980490FFE703
:103AE0009DF83C00C007C0BBFFE70E98A0B3FFE7FE
:103AF0009DF83C008007002807D5FFE7089820B90B
:103B0000FFE730208DF80F0003E020208DF80F0034
:103B1000FFE7FFE70E990020029041B1FFE704990B
:103B20000E9A0020914238BF01200290FFE70298D0
:103B3000C00780B1FFE70E9801380E900B989DF8F2
:103B40000F1000F07DF80B98C068B0F1FF3F01DC6A
:103B5000FFE700E0DEE7FFE7FFE70B98C06800281B
:103B60006CD4FFE7FFE70898022804D3FFE7089822
:103B7000013808900BE00A980699B0FBF1F0079025
:103B800007980999884201D2FFE705E0FFE7099904
:103B9000069848430690E6E7FFE70A980699B0FBC7
:103BA000F1F00790079806990A9A00FB11200A90F5
:103BB0000B98079A47F61871C0F60001895C00F06F
:103BC0003FF80B98C068B0F1FF3F01DCFFE709E068
:103BD00009990698B0FBF1F00690FFE706980028D7
:103BE000DBD1FFE79DF83C00C00730B3FFE70E983C
:103BF00010B3FFE7FFE70E990020019041B1FFE706
:103C000004990E9A0020914238BF01200190FFE7ED
:103C10000198C00778B1FFE70E9801380E900B9815
:103C2000202100F00DF80B98C068B0F1FF3F01DCD7
:103C3000FFE700E0DFE7FFE7FFE7FFE70CB080BD4D
:103C400080B584B003908DF80B10039880680190C4
:103C5000019801300399496888420FD8FFE79DF821
:103C60000B0003990968019A88540198013003995F
:103C700088600399C8680130C860FFE7039841680D
:103C80008068884215D1FFE703980168826800695F
:103C9000FEF7E2FF03998968884205D0FFE70399A0
:103CA0004FF0FF30C86003E0039900208860FFE711
:103CB000FFE704B080BD000080B58AB0099008918C
:103CC0000792002005900998C0680390FFE70998C3
:103CD0000069049004980399884206D9FFE7049983
:103CE0000398C0430844069008E009988168039847
:103CF000049A801AC04308440690FFE70698099981
:103D00008968039A891A884203D2FFE706980190CE
:103D100005E0099880680399401A0190FFE701982F
:103D2000069006980799884203D2FFE7069800900C
:103D300002E007980090FFE7009806900998406815
:103D400003990844029002980899069AFCF7C8FB68
:103D50000699059808440590069908980844089023
:103D600006990798401A079006990398084403900B
:103D7000039809998968884203D1FFE700200390DE
:103D8000FFE7BFF35F8F03980999C860FFE70798C3
:103D900000289CD1FFE705980AB080BD80B588B0A7
:103DA0000790069105920798C0680390079880686D
:103DB0000399401A029002980599884212D9FFE7A8
:103DC0000798406803990844019001980699059A5C
:103DD000FCF786FBBFF35F8F0398059908440799AA
:103DE000C8601FE00298049007984068039908444F
:103DF000019001980699049AFCF772FB05980299C4
:103E0000401A049007984068019001980699029A18
:103E10001144049AFCF764FBBFF35F8F0498079981
:103E2000C860FFE708B080BD80B58CB08DED0B0A8F
:103E300041F23210C3F680300A9040F27F50CBF24C
:103E40001B5009900A9803F055FF41EC100B9FEDB1
:103E5000481B51EC110B53EC102B03F05DFE41ECB1
:103E6000100B51EC100B03F059FA08909DED0A0A63
:103E700020EE000A10EE100A03F03CFF41EC100B9C
:103E80008DED020B099803F035FF41EC100B9FED0F
:103E90003A1B53EC112B51EC100B03F073FC41EC6B
:103EA000100B8DED000B0B9803F024FF41EC100B71
:103EB0009FED331B51EC110B53EC102B03F02CFE38
:103EC0009DED001B41EC100B51EC110B53EC102B32
:103ED00003F058FC9DED020B41EC110B53EC112B40
:103EE00051EC100B03F04CFA41EC100B03F08FF97E
:103EF0008DED040B089803F0FDFE9DED041B41ECD5
:103F0000100B53EC112B51EC100B03F039FA41EC70
:103F1000100B51EC100B03F001FA0890099803F014
:103F2000E9FE41EC100B53EC102B1046194603F040
:103F300027FA41EC100B8DED060B089803F0DAFE22
:103F40009DED060B41EC110B51EC110B53EC102BBA
:103F500003F0BEFA41EC100B51EC100B03F0DEF94C
:103F600008909DED080A0CB080BD00BF00BF00BFE7
:103F7000000000000000000000000000000010C071
:103F8000000000000000F03F80B582B08DF807000F
:103F900000919DF80700022853D1FFE7009841786F
:103FA000014448F2B120C0F60000FCF7E1FA38B94C
:103FB000FFE748F25720C0F60000FCF7E7F93FE0C2
:103FC00000984178014448F2B320C0F60000FCF7A5
:103FD000CFFA38B9FFE748F23420C0F60000FCF70A
:103FE000D5F92CE000984178014448F26C10C0F6F5
:103FF0000000FCF7BDFA38B9FFE748F2F910C0F647
:104000000000FCF7C3F919E000984178014448F238
:10401000B520C0F60000FCF7ABFA38B9FFE748F26C
:104020001A20C0F60000FCF7B1F906E048F2811052
:10403000C0F60000FCF7AAF9FFE7FFE7FFE7FFE79C
:1040400006E048F29510C0F60000FCF79FF9FFE784
:1040500002B080BD80B582B08DF8070000919DF858
:10406000070001280AD1FFE740F6B410C2F20000B1
:104070004FF4FA7101F0E0F800F0F2F848F279201C
:10408000C0F60000FCF782F9FFE702B080BD000037
:1040900080B582B08DF8070000919DF807000128D7
:1040A00001D1FFE706E048F2C310C0F60000FCF7BC
:1040B0006DF9FFE702B080BD80B582B08DF80700D2
:1040C00000919DF80700012801D1FFE706E048F2C2
:1040D0008820C0F60000FCF759F9FFE702B080BD68
:1040E00080B584B08DF80F00029100200190FFE7A9
:1040F00001989DF80F1088420FD2FFE701990298AE
:10410000425C024448F2D210C0F60000FCF73EF9CF
:10411000FFE7019801300190EAE79DF80F000328BE
:1041200005D1FFE70020802101F060FB12E048F29A
:10413000A810C0F60000FCF729F948F2E110C0F61B
:104140000000FCF723F948F29820C0F60000FCF7C5
:104150001DF9FFE704B080BD80B540F6AC10C2F297
:10416000000000F02DFA80BD80B501F085FD44F619
:104170004420C2F200000A2101F022F840F6841027
:10418000C2F20000103000F059FC30280DD1FFE7DA
:1041900048F2B801C0F6000148F2A203C0F60003DD
:1041A0000220122201F0E8FC0CE048F2B801C0F64F
:1041B000000148F28803C0F600030220162201F035
:1041C000DBFCFFE780BD000080B582B00090009866
:1041D0000138B0F1807F03D3FFE70120019019E09F
:1041E000009801384EF21401CEF2000108604FF041
:1041F000FF300F2100F012F84EF21801CEF200014C
:10420000002008604EF21002CEF200020721116079
:104210000190FFE7019802B080BD000082B08DF8E8
:10422000070000919DF9070000280AD4FFE70098D5
:1042300000019DF907104EF20042CEF200028854B0
:104240000BE0009800019DF8071001F00F014EF6F9
:104250001452CEF200028854FFE702B0704700000B
:10426000BFF34F8F4EF60C51CEF20001086800F4F8
:10427000E0600422C0F2FA5210430860BFF34F8F8F
:10428000FFE700BFFDE7000080B586B00590002085
:1042900000900921FEF764F900984FF40071039132
:1042A0008DF810000C208DF81100012001908DF880
:1042B000120003A8FEF7DEF84FF4E060FEF722FBE1
:1042C0000099019817228DF808208DF80A108DF8B2
:1042D0000B0002A8FEF7C0FA06B080BD80B586B01C
:1042E00005900491ADF80E2005980190049840F6D1
:1042F0000001C4F20101884205D1FFE70420012139
:10430000FEF758FB54E0049840F60041C4F2010166
:10431000884205D1FFE708200121FEF74BFB46E06C
:10432000049841F20001C4F20101884205D1FFE77F
:1043300010200121FEF73EFB38E0049841F20041D5
:10434000C4F20101884205D1FFE720200121FEF7D8
:1043500031FB2AE0049841F60001C4F201018842D1
:1043600005D1FFE740200121FEF724FB1CE0049863
:1043700041F60041C4F20101884205D1FFE78020E7
:104380000121FEF717FB0EE0049842F20001C4F28F
:104390000101884206D1FFE74FF480700121FEF74A
:1043A00009FBFFE7FFE7FFE7FFE7FFE7FFE7FFE7BF
:1043B000BDF80E00B0F5803F0FDAFFE7BDF80E0044
:1043C000ADF8080048208DF80B0003208DF80A0096
:1043D000049802A9FEF7EEF8FFE701990498086037
:1043E000BDF80E00888006B080BD000081B000904E
:1043F000009801B07047000081B00090009801B0B3
:104400007047000081B00090009988880968486171
:1044100001B0704781B000900099888809680861F0
:1044200001B0704780B586B005900491ADF80E20BC
:1044300005980190049840F60001C4F201018842F9
:1044400005D1FFE704200121FEF7B4FA54E00498F7
:1044500040F60041C4F20101884205D1FFE708207F
:104460000121FEF7A7FA46E0049841F20001C4F2E8
:104470000101884205D1FFE710200121FEF79AFAD9
:1044800038E0049841F20041C4F20101884205D1AC
:10449000FFE720200121FEF78DFA2AE0049841F67B
:1044A0000001C4F20101884205D1FFE7402001214B
:1044B000FEF780FA1CE0049841F60041C4F20101C5
:1044C000884205D1FFE780200121FEF773FA0EE054
:1044D000049842F20001C4F20101884206D1FFE7CC
:1044E0004FF480700121FEF765FAFFE7FFE7FFE771
:1044F000FFE7FFE7FFE7FFE7BDF80E00B0F5803FFD
:104500000FDAFFE7BDF80E00ADF8080003208DF8C4
:104510000A0010208DF80B00049802A9FEF74AF853
:10452000FFE7019904980860BDF80E00888006B086
:1045300080BD000081B00090009801B0704700007D
:1045400081B00090009801B07047000080B582B043
:1045500001900198009040F68410C2F200001030E3
:1045600000F08EF90099487808700020487002B079
:1045700080BD000081B0009000994878087001B0BB
:104580007047000080B582B00190FFE748F27611D5
:10459000C0F600010020FEF7DDFBFFE748F27610D1
:1045A000C0F60000FBF7F2FE02B080BD81B00090C3
:1045B0000099012008700220487001B07047000087
:1045C00080B584B003900398019000780146029171
:1045D000032814D80299DFE801F0020A060E0198B8
:1045E000FFF7E4FF0FE00198FFF7C4FF0BE001982D
:1045F000FFF7ACFF07E00198FFF7C4FF03E0019865
:10460000FFF7C0FFFFE704B080BD000081B000905D
:10461000009800210170417001B0704781B0009096
:10462000009801B07047000080B588B0079001A8DD
:10463000FEF7DCF9FFE7019A48F2EE01C0F600014F
:104640000020FEF787FBFFE7FFE7029A48F2E3014D
:10465000C0F600010020FEF77DFBFFE7FFE7039AAD
:1046600048F2CB01C0F600010020FEF773FBFFE724
:10467000FFE7049A48F2D701C0F600010020FEF7D8
:1046800069FBFFE708B080BD80B584B00390039854
:1046900002904FF4A060FEF743F94FF48060FEF7FC
:1046A00055F9042001210191FEF784F901990820B0
:1046B000FEF780F901991020FEF77CF901994FF47B
:1046C0008020FEF75BF901990846FEF773F901991E
:1046D0004FF40060FEF76EF901990846FEF74EF9B7
:1046E00001990220FEF74AF901994FF48050FEF734
:1046F00061F90298FFF798FF029804B080BD0000AE
:1047000081B00090009801B07047000080B582B081
:104710000190019A69460020086048F26211C0F6D3
:10472000000101204FF48043FEF742FAFEF790FAB1
:10473000FFE748F22F11C0F6000148F26E12C0F6F2
:10474000000248F20953C0F600030020FEF702FB06
:10475000FFE7FFE748F21811C0F6000148F24D12DA
:10476000C0F6000248F25913C0F600030020FEF71D
:10477000F1FAFFE7FFE748F2FB01C0F60001002075
:10478000FEF7E8FAFFE702B080BD000080B582B016
:10479000019001980090FFF7B9FF009802B080BD2A
:1047A00081B00090009801B07047000080B584B0DF
:1047B00003900398019000218DF80B10FFF722FE63
:1047C0000198D32100F01CFB019800F0DDF80146B0
:1047D00001988DF80B10FFF71DFE9DF80B0004B03B
:1047E00080BD000080B584B003908DF80B10039855
:1047F0000190FFF707FE01989DF80B1000F000FBF9
:104800000198FFF707FE04B080BD000080B582B0BC
:1048100001900198009040F60001C4F201011022BD
:10482000FFF700FE0098FFF7F5FD02B080BD000025
:1048300080B582B0019001981030009040F60001E0
:10484000C4F201014FF40072FFF748FD0098FFF732
:104850001BFD02B080BD000080B582B001900198C0
:104860000830009040F60001C4F201014FF480626C
:10487000FFF7D8FD0098FFF7CDFD02B080BD000026
:1048800080B592B01190119809900021ADF84210B6
:104890000F910E910D910C918DF82F100A917021AE
:1048A000FFF7A0FF09980421FFF79CFFFFE740F204
:1048B0003030C2F20000007808B9FFE7F7E7099846
:1048C00040F23032C2F2000200210891117000F073
:1048D00041FB01460898ADF842108DF82F00FFE724
:1048E0009DF82F00032813DCFFE709989DF82F108F
:1048F000C231C9B200F0AAFA9DF82F200CA941F8E4
:104900002200FFE79DF82F0001308DF82F00E7E728
:10491000BDF836004FF47A714843BDF83210B0FB51
:10492000F1F000EE100AB8EE400A8DED0A0A9DED96
:104930000A0A8DED050A10EE100A03F0DBF99DED71
:10494000050A41EC110B8DED061BFFF76DFA10EE19
:10495000100A03F0CFF99DED061B41EC100B6846E1
:1049600080ED001B80ED020B48F2E021C0F6000153
:1049700048F2B723C0F6000302204FF4D37201F0CF
:10498000FBF812B080BD000080B582B0019000201D
:10499000ADF80200FFE743F20000C4F2010002217B
:1049A000FEF706FC08B9FFE7F5E743F20000C4F2A2
:1049B0000100AA21FEF71EFCFFE743F20000C4F24B
:1049C00001000121FEF7F4FB08B9FFE7F5E743F228
:1049D0000000C4F20100FEF707FCADF80200FFE79B
:1049E00043F20000C4F201000121FEF7E1FB08B927
:1049F000FFE7F5E743F20000C4F20100FEF7F4FB25
:104A0000ADF80200FFE743F20000C4F2010002210A
:104A1000FEF7CEFB08B9FFE7F5E7FFE743F200003A
:104A2000C4F201008021FEF7C3FB012801D1FFE79A
:104A3000F4E79DF8020002B080BD000080B58CB0A4
:104A40000B900B980490002101910A910991089113
:104A5000079106918DF8171044F63012C1F28A12B0
:104A60000A920022CAF20F0209920891079140F2BD
:104A70000051C4F2CC61069108300290FFF7CAFCE5
:104A800040F6B410C2F200000390012100F0E2FBF6
:104A90000298FFF7B7FC03980A2100F0CDFB0298BB
:104AA000FFF7B8FC0398642100F0D4FB0498502170
:104AB000FFF798FE04980A9A802100F067FA04989C
:104AC000099A812100F062FA0498089A822100F084
:104AD0005DFA0498079A832100F058FA0498069A20
:104AE000842100F053FA04987021FFF77BFE0498AC
:104AF000FFF75CFE8DF81700FFE79DF8172048F2DE
:104B0000CF21C0F600010020FEF724F9FFE79DF851
:104B100017006946086048F2E021C0F6000148F23B
:104B2000CF23C0F6000302204FF4F07201F024F806
:104B30009DF817000CB080BD80B582B001900020B8
:104B4000ADF80200ADF80000FFE743F20000C4F248
:104B500001000221FEF72CFB08B9FFE7F5E743F25D
:104B60000000C4F20100AA21FEF744FBFFE743F274
:104B70000000C4F201000121FEF71AFB08B9FFE7AB
:104B8000F5E743F20000C4F20100FEF72DFBADF89B
:104B90000200FFE743F20000C4F201000121FEF72A
:104BA00007FB08B9FFE7F5E743F20000C4F2010094
:104BB000FEF71AFBADF80200FFE743F20000C4F273
:104BC00001000221FEF7F4FA08B9FFE7F5E743F226
:104BD0000000C4F20100AA21FEF70CFBFFE743F23C
:104BE0000000C4F201000121FEF7E2FA08B9FFE774
:104BF000F5E743F20000C4F20100FEF7F5FAADF864
:104C00000000FFE743F20000C4F201000221FEF7BA
:104C1000CFFA08B9FFE7F5E7FFE743F20000C4F277
:104C200001008021FEF7C4FA012801D1FFE7F4E773
:104C3000BDF80210BDF8000000EB012080B202B008
:104C400080BD000080B584B003900020ADF80A005C
:104C5000ADF80800ADF80600ADF804000090FFE7DD
:104C600043F20000C4F201000221FEF7A1FA08B9E4
:104C7000FFE7F5E743F20000C4F20100AA21FEF7C6
:104C8000B9FAFFE743F20000C4F201000121FEF788
:104C90008FFA08B9FFE7F5E743F20000C4F201001C
:104CA000FEF7A2FAADF80A00FFE743F20000C4F2F3
:104CB00001000121FEF77CFA08B9FFE7F5E743F2AE
:104CC0000000C4F20100FEF78FFAADF80A00FFE71A
:104CD00043F20000C4F201000221FEF769FA08B9AC
:104CE000FFE7F5E743F20000C4F20100AA21FEF756
:104CF00081FAFFE743F20000C4F201000121FEF750
:104D000057FA08B9FFE7F5E743F20000C4F20100E3
:104D1000FEF76AFAADF80800FFE743F20000C4F2BC
:104D200001000221FEF744FA08B9FFE7F5E743F274
:104D30000000C4F20100AA21FEF75CFAFFE743F28B
:104D40000000C4F201000121FEF732FA08B9FFE7C2
:104D5000F5E743F20000C4F20100FEF745FAADF8B2
:104D60000600FFE743F20000C4F201000221FEF753
:104D70001FFA08B9FFE7F5E743F20000C4F20100AB
:104D8000AA21FEF737FAFFE743F20000C4F2010060
:104D90000121FEF70DFA08B9FFE7F5E743F200003D
:104DA000C4F20100FEF720FAADF80400FFE743F279
:104DB0000000C4F201000221FEF7FAF908B9FFE78A
:104DC000F5E7FFE743F20000C4F201008021FEF79F
:104DD000EFF9012801D1FFE7F4E7BDF80A0000066A
:104DE000BDF8081000EB0140BDF8061000EB0120F3
:104DF000BDF8041008440090009804B080BD000085
:104E000080B582B001908DF80310FFE743F20000F7
:104E1000C4F201000221FEF7CBF908B9FFE7F5E77C
:104E20009DF8031043F20000C4F20100FEF7E2F91E
:104E3000FFE743F20000C4F201008021FEF7B8F959
:104E4000012801D1FFE7F4E702B080BD80B584B04E
:104E500003908DF80B100398009000210191FFF74B
:104E6000D1FA00989DF80B10FFF7CAFF0098FFF7E2
:104E7000E9FE014600980191FFF7CCFA019804B0D1
:104E800080BD000080B582B001904FF4C060FDF796
:104E900039FD23208DF8000001208DF8010002214A
:104EA0008DF802108DF803006846FDF7D5FC02B0BE
:104EB00080BD000080B584B00390A020ADF808004C
:104EC00003208DF80A0018208DF80B0040F6000032
:104ED000C4F20100009002A90191FDF76BFB00985C
:104EE00001994022ADF8082048228DF80B20FDF7EB
:104EF00061FB04B080BD000080B588B00790002041
:104F0000ADF808004FF48271ADF80A10ADF80C004E
:104F1000ADF80E0001210191ADF81010ADF81200AE
:104F20001821ADF81410ADF816000720ADF81800E0
:104F300043F20000C4F20100009002A9FEF764F9F8
:104F400000980199FEF794F900980199FEF7DAF8B4
:104F500008B080BD80B584B0039003980190002113
:104F6000ADF80A10FFF74EFA0198D221FFF748FF7B
:104F70000198FFF7E1FD01460198ADF80A10FFF72F
:104F800049FABDF80A0004B080BD000080B584B0C5
:104F900003908DF80B10019203980090FFF732FAFE
:104FA00000989DF80B10FFF72BFF00989DF8071055
:104FB000FFF726FF00989DF80610FFF721FF0098E5
:104FC0009DF80510FFF71CFF00989DF80410FFF7EF
:104FD00017FF0098FFF71EFA04B080BD80B582B0BD
:104FE000019001980090FFF7A5FA00980830FFF7AC
:104FF000A1FA00981030FFF7F9F90098FFF742FF87
:105000000098FFF757FF0098FFF776FF0098FFF72B
:10501000FDFB0098FFF720FC0098FFF709FC0098C3
:1050200002B080BD80B582B0019001980090103030
:10503000FFF7E2F900980830FFF782FA0098FFF7CF
:105040007FFA009802B080BD80B588B007900691C5
:10505000069802900020ADF80C00ADF80E00ADF8F7
:105060001000ADF814000C20ADF8120044F600005A
:10507000C4F20000009002A9FEF702FB009840F283
:10508000255101220192FEF721FA00980199FEF7BD
:1050900067FA08B080BD000080B586B005904FF477
:1050A0008060ADF81000032001908DF812001820E8
:1050B0008DF8130040F60040C4F20100029004A9EC
:1050C0000391FDF777FA019A029803994FF4006370
:1050D000ADF810308DF8122004228DF81320FDF762
:1050E00069FA06B080BD000080B582B001904FF42F
:1050F000E060FDF707FC27208DF8000000208DF808
:10510000020001208DF803006846FDF7A5FB02B000
:1051100080BD000080B582B0019001980090FFF73B
:10512000BBFF00984FF4E131FFF78EFF0098FFF7C7
:10513000DBFF009802B080BD81B00090009801B004
:105140007047000080B582B0019040F6BC10C2F2FA
:10515000000000F0CDFA40F22800C2F2000000F09A
:1051600091F902B080BD000080B582B00190019835
:105170000090FFF7E7FF009802B080BD81B000907B
:10518000009801B07047000080B582B0019040F2F5
:105190000C00C2F20000006844F6D351C1F2620173
:1051A000A0FB01108009FFF70FF810B1FFE7FFE740
:1051B000FEE74FF0FF300021FFF730F802B080BD6E
:1051C00082B001900091009840F6B011C2F2000147
:1051D0000860FFE740F6B010C2F20000006808B1B6
:1051E000FFE7F7E702B0704780B582B00190019801
:1051F0000090FFF7C9FF009802B080BD81B0009019
:10520000009801B07047000082B0019000910199B0
:105210004EF6FC52CEF20002106840F08070106032
:1052200041F20002CEF20002106840F0010010606E
:105230000098086002B0704780B582B0019000917C
:10524000019800994FF47A72514300F003F802B0CC
:1052500080BD000085B004900391049941F20400E0
:10526000CEF2000000680290039809684DF6836250
:10527000C4F21B32A1FB0221890C48430090029822
:105280000099084401900198029988420CDDFFE7DB
:10529000FFE741F20400CEF2000000680199884265
:1052A00001D2FFE7F5E716E0FFE741F20400CEF296
:1052B000000000680199884201D3FFE7F5E7FFE7A6
:1052C00041F20400CEF2000000680199884201D248
:1052D000FFE7F5E7FFE705B07047000080B588B04D
:1052E00007900798009001A8FDF780FB00980199AE
:1052F000FFF78AFF009808B080BD000081B00090E1
:10530000009801B07047000080B584B00390039806
:105310000290FFF7B9F902980430FFF7FBFE0298FC
:1053200008300190FFF706F902981030FFF756FE9B
:10533000019840F60001C4F201014FF48072FFF7BA
:1053400071F80198FFF766F8029804B080BD00007C
:1053500080B582B00190019800901030FFF762FE96
:1053600000980830FFF7ECF800980430FFF7E4FEEF
:105370000098FFF7C5F9009802B080BD80B582B0F3
:1053800040F64420C2F200000190FFF7FFF90199B6
:1053900044F2A170C0F6000040F20002C0F6000224
:1053A000FBF744F802B080BD80B582B040F68410AF
:1053B000C2F200000190FFF7A7FF019945F25130BA
:1053C000C0F6000040F20002C0F60002FBF72EF823
:1053D00002B080BD80B582B040F6B810C2F20000C5
:1053E0000190FFF7C1FE019945F27D10C0F6000063
:1053F00040F20002C0F60002FBF718F802B080BDD0
:1054000080B582B040F6AC10C2F200000190FFF708
:10541000FDF8019944F21D60C0F6000040F2000260
:10542000C0F60002FBF702F802B080BD80B582B082
:1054300040F6B410C2F200000190FFF74FFF01994F
:1054400045F2FD20C0F6000040F20002C0F6000266
:10545000FAF7ECFF02B080BD80B582B044F644207C
:10546000C2F200000190FFF7BFFE019945F2FD1066
:10547000C0F6000040F20002C0F60002FAF7D6FFC4
:1054800002B080BD80B582B0019048F20E50C0F6E7
:105490000000FAF77BFF48F26330C0F60000FAF72D
:1054A00075FF48F20640C0F60000FAF76FFF48F2B9
:1054B0005A40C0F60000FAF769FF48F28440C0F68F
:1054C0000000FAF763FF48F23040C0F60000FAF738
:1054D0005DFF48F2AE40C0F60000FAF757FF48F211
:1054E0000750C0F60000FAF751FF48F2DF40C0F65F
:1054F0000000FAF74BFF48F2A930C0F60000FAF7B7
:1055000045FF48F2BE30C0F60000FAF73FFF48F210
:10551000D730C0F6000048F26E11C0F6000148F224
:105520000952C0F60002FAF731FF019948F26030E3
:10553000C0F60000FAF72AFF0198243001F078F84D
:105540000198243048F2D841C0F6000100F0B8FFBD
:1055500001990120488502B080BD000081B0009013
:10556000009900204860009A4FF6FF711180009961
:105570004A681144087201B07047000080B584B0D9
:105580008DF80F0002914FF0FF3001909DF80F0051
:105590007F2804D1FFE708208DF80F00FFE702986D
:1055A00090F88100002841D1FFE79DF80F0047F6F1
:1055B0009071C0F6000100F0B1F801900198002848
:1055C00014D4FFE7019947F69870C0F6000050F830
:1055D000210050B1FFE7019947F69870C0F600002E
:1055E00050F8211002988847FFE71EE09DF80F0051
:1055F0001B2813D1FFE70299022081F881009DF852
:105600000F00029991F88020114481F86C000299F2
:1056100091F88000013081F8800005E002989DF843
:105620000F1000F02BFBFFE7FFE75DE0029890F81A
:105630008100022852D1FFE79DF80F00029991F8EE
:105640008020114481F86C009DF80F00612805DB73
:10565000FFE79DF80F007B280FDBFFE79DF80F00A9
:10566000412805DBFFE79DF80F005B2805DBFFE71E
:105670009DF80F007E281AD1FFE79DF80F0047F62E
:105680002871C0F6000100F049F80190019947F631
:105690004070C0F6000050F8211002988847029927
:1056A000002081F88000029981F8810015E00298BD
:1056B00090F88000132808DBFFE70299002081F8AA
:1056C0008000029981F8810006E0029991F880003B
:1056D000013081F88000FFE7FFE704E00299002035
:1056E00081F88100FFE7FFE79DF80F0004B080BD5F
:1056F00081B00090009900204860009A4FF6FF7139
:10570000118000994A6811440872009981F880005C
:10571000009981F8810001B07047000085B08DF8D4
:105720000F00029100200190FFE702980199415C6F
:105730009DF80F2000209142009008D0FFE70298CA
:105740000199405C002818BF01200090FFE70098F5
:10575000C00728B1FFE7FFE7019801300190E4E7B7
:1057600002980199405C18B1FFE70198049003E0AA
:105770004FF0FF300490FFE7049805B07047000039
:1057800080B584B00390029100200190FFE701985A
:10579000029988420ED2FFE703980199405C40F2DB
:1057A000BC11C2F20001FAF73FFEFFE70198013099
:1057B0000190ECE704B080BD80B582B0019000910B
:1057C0009DF8041044F60000C4F20000FDF7F2FF5B
:1057D000FFE744F60000C4F200008021FDF7D6FE8A
:1057E00008B9FFE7F5E7019802B080BD80B5A0B029
:1057F0001E901D91FFE71E9B1D986946086048F2A8
:10580000FB21C0F6000148F23A32C0F60002002047
:10581000FDF7A0FAFFE71E9A1D9B48F2FB20C0F699
:10582000000048F23A31C0F60001FAF7AFFD1D98CA
:10583000012805DBFFE71D98B0F5807F04DDFFE759
:105840004FF0FF301F906AE148F22930C0F60000A7
:105850001C9000201B908DF86B001B90FFE71B989D
:105860001D99CA1701EB127121F00F01884280F2D5
:105870009D80FFE700200990FFE709980F286EDC64
:10588000FFE71E981B99099A1144405C8DF86B0044
:10589000099800EB400008901C989DF86B100909CE
:1058A000405C089A511C08910DF1290188541C98FC
:1058B0009DF86B2002F00F02805C089A531C08933D
:1058C000885409990020092902900DDCFFE7099806
:1058D0000130C11700EB517121F00701401AB0FAF5
:1058E00080F040090290FFE70298C10720200029BC
:1058F00018BF0920089A511C08910DF129018854FC
:105900009DF86B00202818DBFFE79DF86B00A0B125
:10591000FFE79DF86B0009280FD0FFE79DF86B00AB
:105920000D280AD0FFE79DF86B000A2805D0FFE795
:105930009DF86B00082806D1FFE7099A0DF15A017E
:105940002E20885406E09DF86B00099A0DF15A014B
:105950008854FFE7FFE70998013009908DE70020A0
:105960008DF85900099A0DF15A018854FFE71B9AE6
:1059700069460DF15A00086048F21C31C0F600017A
:1059800000200DF12903FDF7E5F9FFE71B9948F227
:105990000E30C0F600000DF129020DF15A03FAF79E
:1059A000F5FCFFE71B9810301B9058E71D98C117B6
:1059B00000EB117121F00F01401A079007980028A1
:1059C00003DCFFE700201F90A9E0002006901B9851
:1059D0000590FFE71B981D99884255DAFFE71E984E
:1059E0001B99405C8DF86B00069800EB400004901A
:1059F0001C989DF86B100909405C049A511C049195
:105A00000DF1290188541C989DF86B2002F00F02BB
:105A1000805C049A531C04938854049A501C04908C
:105A2000202088549DF86B00202818DBFFE79DF8A4
:105A30006B00A0B1FFE79DF86B0009280FD0FFE7CE
:105A40009DF86B000D280AD0FFE79DF86B000A282F
:105A500005D0FFE79DF86B00082806D1FFE7069AFE
:105A60000DF15A012E20885406E09DF86B00069A2D
:105A70000DF15A018854FFE7069801300690FFE7C0
:105A80001B9801301B90A5E7079800EB40020DF131
:105A9000290100208854069A0DF15A01885407986C
:105AA0000690FFE706980F2818DCFFE7069800EB42
:105AB00040000390039A501C03900DF1290120200F
:105AC0008854039A531C03938854039A531C0393DA
:105AD0008854FFE7069801300690E3E700208DF830
